:020000040800F2
:10000000300C002001010008B7220008BF1E0008C4
:10001000B522000825090008A52A000800000000F4
:10002000000000000000000000000000E9250008BA
:100030002709000800000000E72500084126000805
:100040001B0100081B0100081B0100081B01000820
:100050001B0100081B0100081B01000831090008F2
:10006000370900081B0100081B0100081B010008DC
:100070001B0100081B0100081B0100081B010008F0
:100080001B0100081B0100081B0100081B010008E0
:100090001B0100081B0100081B0100083D090008A6
:1000A0001B0100089D2600081B0100081B01000819
:1000B000A9260008B5260008C12600081B01000873
:1000C0001B0100081B0100081B0100081B010008A0
:1000D0001B010008812A00088D2A0008992A0008BF
:1000E000290900081B0100081B010008DFF80CD0DB
:1000F00000F006FC00480047D13B0008300C00200F
:100100000648804706480047FEE7FEE7FEE7FEE7B1
:10011000FEE7FEE7FEE7FEE7FEE7FEE79B260008B8
:10012000ED000008202A04DB203A21FA02F0002129
:10013000704721FA02F3D040C2F1200291400843F7
:1001400019467047D2B201E000F8012B491EFBD2DC
:1001500070470022F6E710B513460A4604461946D2
:10016000FFF7F0FF204610BDF0B480EA0102D40F83
:100170004200B2EB410F02D20246084611464A0045
:1001800042D0C30DDDB2C1F3C752AD1A202D35DA0E
:10019000C1F3160141F4000204B15242C5F1200638
:1001A00002FA06F12A411044B3EBD05F23D0C4B168
:1001B000012DA0EBC35009DCF0BC4FF0004202EA75
:1001C000C352DBB200F5000000F0DEBA400000F1DF
:1001D000807000EBC350A0F1807040EAD1704900FC
:1001E00009E0490841EAC071A0EBC35000F50000E6
:1001F000400800EBC350F0BC00F0BDBA61420122E0
:1002000002EB4101001BF6E7F0BC704781F00041B2
:10021000AAE780F00040A7E780EA010210B502F0EB
:100220000043400022D04A001FD0010E01EB1261B2
:10023000C0F35600C2F3560240F4000042F400023C
:10024000A0FB022000047F39140400D0401C50EAB7
:10025000124001D44000491EC2B20C0604EBD0107B
:10026000401C4008802A02D003E0002010BD20F08E
:100270000100002900DA0020184310BD420005D01B
:10028000C0F3C7525242914201DC0020704700EB9C
:10029000C15070472DE9FE4F804681EA0300C00F30
:1002A0000C46009021F0004123F00045B8EB02001D
:1002B000A94105D24046214690461C460B460246BF
:1002C00023F00040104347D0270DC7F30A00C3F3C3
:1002D0000A510290401A019040286BDAC3F31300D0
:1002E00040F4801B0098924620B10023D2EB030A11
:1002F00063EB0B0B01985946C0F14002504600F0E9
:1003000019FA06460D4650465946019A00F021FA60
:1003100010EB08006141002487EA115284EAE77378
:100320001A4340D0009A62B3019A012A4FEA075259
:1003300015DC001B61EB02014FF0004202EA07529C
:10034000CDE90042001C41F5801132462B4600F0F9
:1003500058FA03B0BDE8F08F40462146F9E7001B8C
:1003600061EB0201001C41F5801300185B4120186D
:10037000A2F5001747EB030140EAD570B6196D41AD
:1003800011E06D084FEA360645EAC0754FEA07529C
:10039000001B61EB0201001C41F5801149084FEA86
:1003A00030000019514132462B4603B0BDE8F04FF2
:1003B00000F018BA0098012240000023D0EB02029E
:1003C00063EBE073009821464FEAE074B8EB00005D
:1003D00061EB0401E9E783F000435BE781F0004152
:1003E00058E72DE9FE4F81EA030404F0004421F0B0
:1003F000004100944FF0000B23F0004350EA010449
:100400005ED052EA03045BD0C3F30A54C1F30A5529
:100410002C44A4F2F3340194A0FB0254C1F3130161
:1004200041F48011C3F3130343F4801301FB02442E
:1004300000FB034E840A970A44EA815447EA835733
:10044000A4FB076802958D0A05FB07854FEA932CEC
:1004500004FB0C542705029D4FEA065847EA16375D
:10046000B5EB08056EEB070C870E920E47EA811775
:1004700042EA8312A7FB0201B6EB0B0164EB000416
:100480002B0D43EA0C335E1844EB1C50DA46514600
:10049000E7FB0201C5F313044FEA0B3343EA14539D
:1004A0004FEA0432019C43EA0603A4F10C040294CF
:1004B000009CCDE900B400F0A4F903B0BDE8F08FD2
:1004C00000200146F9E72DE9F04D81EA030404F02C
:1004D000004B21F0004514464FF0000A23F0004184
:1004E00050EA050220D054EA01021DD0C5F30A5794
:1004F0000246C5F31303C1F31300C1F30A5640F4D7
:10050000801543F48013A7EB0608101BD64608F2AB
:10051000FD3873EB050002D308F1010801E09218E1
:100520005B41B8F1000F03DA00200146BDE8F08D11
:1005300000204FF48011064684460EE0171B73EB33
:10054000050705D3121B63EB050306434CEA010CB8
:1005500049084FEA300092185B4150EA0107EDD19B
:1005600052EA030012D082EA040083EA050108433C
:1005700005D0101BAB4106D20122002306E0002269
:100580004FF0004302E06FF0010253101AEB060037
:100590004CEB085110EB0A0041EB0B01BDE8F04DAC
:1005A00000F020B9C10F80EAE0700844CA07962322
:1005B000002100F0E9B80EB5C10F80EAE0700844F0
:1005C000CA07002140F233438DE80E000A460B466D
:1005D00000F017F903B000BD00F0004220F0004029
:1005E000C10DC0F3160040F400007F2901DA00209D
:1005F0007047962903DCC1F19601C84001E09639A5
:100600008840002AF4D04042704770B5C1F30A52C6
:1006100001F000450024C1F3130140F2FF3341F41F
:1006200080119A4201DA002070BD40F233439A42B1
:10063000A2F2334203DC5242FFF774FD00E0904027
:100640002C43F1D0404270BD00F0004230F0004039
:100650000AD0C10D01F56071C0F3160042EA0151E4
:10066000C20840071143704700200146704701F05F
:10067000004330B421F0004150EA010206D00A0DD7
:10068000A2F56072C1F31301002A02DC30BC002025
:100690007047440F44EAC104C100E01830BC00EBCD
:1006A000C25000F068B830B50B4601460020202249
:1006B000012409E021FA02F59D4205D303FA02F56F
:1006C000491B04FA02F52844151EA2F10102F1DCCF
:1006D00030BD2DE9F05F0546002092469B468846D6
:1006E0000646814640241BE02846414647462246AE
:1006F000FFF718FD53465A46C01A914110D31146D0
:100700001846224600F016F82D1A67EB01084F46EE
:1007100022460120002100F00DF817EB00094E41A0
:10072000201EA4F10104DFDC484631462A46434638
:10073000BDE8F09F202A04DB203A00FA02F10020F5
:1007400070479140C2F1200320FA03F3194390400F
:100750007047202A06DBCB17203A41FA02F043EA21
:10076000E07306E041FA02F3D040C2F1200291406A
:100770000843194670470029A8BF7047401C49002C
:1007800008BF20F00100704710B4B0FA80FC00FAF6
:100790000CF050EA010404BF10BC704749B1CCF121
:1007A000200421FA04F411FA0CF118BF01212143AD
:1007B0000843A3EB0C01CB1D4FEA00614FEA102068
:1007C00042BF002010BC704700EBC350104400290A
:1007D000A4BF10BC7047401C490008BF20F00100B6
:1007E00010BC704710B5141E73F1000408DA401CE9
:1007F00041F1000192185B411A4301D120F0010040
:1008000010BD2DE9F04D92469B4611B1B1FA81F22F
:1008100002E0B0FA80F220329046FFF78BFF0446E8
:100820000F4640EA0A0041EA0B0153465A46084384
:1008300013D0114653EA010019D0C8F140025046C6
:10084000FFF770FC05460E46504659464246FFF7F4
:1008500071FF084305D0012004E020463946BDE879
:10086000F08D0020054346EAE0762C4337430A9892
:100870006305E40AA0EB08000022FD0A44EA47549D
:100880000A3002D500200146E9E701051019694147
:10089000DDE9084500196941BDE8F04DA2E7C1F363
:1008A0000A52C1F3130140F2FF3341F480119A421E
:1008B00002DA00200146704740F233439A42A2F226
:1008C000334202DC5242FFF72DBCFFF733BF00007A
:1008D00030B5041E71F1000404DB4FF000444042C7
:1008E00064EB0101141E73F1000405DB1C464FF09C
:1008F0000043524263EB0403994208BF904230BD6B
:10090000064C074D06E0E06840F0010394E807005C
:1009100098471034AC42F6D3FFF7ECFBC8710008DF
:10092000E8710008FEE770474FF4006000F0A6B8D9
:10093000022000F0A3B8042000F0A0B84FF48070AB
:1009400000F09CB808B572B60025074F074C4FF46D
:1009500000563146384600F088F900950098401C52
:100960000090A042FAD3F4E70010014020A1070054
:1009700010B590F821100022022905D004218163CE
:1009800080F82020012010BD01680B6823F00E03C1
:100990000B6001680B6823F001030B6090F8403096
:1009A000012404FA03F1C36B596080F8214080F8F8
:1009B0002020104610BD000010B590F82110002432
:1009C000022903D00421816301243DE001680A6803
:1009D00022F00E020A6001680A6822F001020A6031
:1009E0001A4A0168914201D1012121E0174A1432CB
:1009F000914201D110211BE0144A2832914201D1C9
:100A0000891515E0114A3C32914201D189140FE059
:100A10000E4A5032914202D14FF4803108E00B4A25
:100A20006432914202D14FF4801101E04FF08071A5
:100A3000064A083A5160012180F82110002180F80F
:100A40002010416B01B18847204610BD08000240CC
:100A5000806B704770B5044600F014F90546601CC1
:100A600002D004480078044400F00CF9401BA04276
:100A7000FAD370BD1000002002F096BD044910B5F5
:100A80000A68024202D00860FFF7F6FF10BD0000BE
:100A9000140401402DE9F84FDFF8A491002409F176
:100AA000040A0AF1040B23464FF00F080BF1040E61
:100AB000BEE00127A7403A40BA4272D1DFF884C1B4
:100AC0004D68A5EB0C0665452BD00DDC032D34D00D
:100AD00005DC35B3012D19D0022D2FD11BE0112DCE
:100AE00016D0122D2AD119E0B6F5881F19D006DCD0
:100AF000B6F5803F15D0B6F5801F1FD111E0B6F5D1
:100B0000001F0ED0B6F5041F18D10AE0CB6815E01F
:100B1000CB681B1D12E0CB6808330FE0CB680C33A9
:100B20000CE08B682BB1012B4FF0080303D0476119
:100B300004E0042302E0076100E00023FF2A01D85B
:100B4000064601E000F104064FEA840501D9A5F14B
:100B50002005376808FA05FC27EA0C0703FA05F5B3
:100B600047EA050737604D68ED0060D5364DAE6940
:100B700046F00106AE61AD6924F0030605F00105FB
:100B80000095324D7719BE68A5072D0F08FA05FCB0
:100B900026EA0C06DFF8B8C0604503D14FF0000C20
:100BA00017E044E0DFF8ACC0604502D14FF0010C23
:100BB0000FE0DFF8A4C0604502D14FF0020C08E05E
:100BC000DFF898C0604502D14FF0030C01E04FF010
:100BD000040C0CFA05FC4CEA060CC7F808C04D687A
:100BE000D9F80060ED034D4601D5164300E0964369
:100BF0002E604D68DAF80060AD03554601D5164306
:100C000000E096432E604D68DBF80060ED025D4623
:100C100001D5164300E096432E604D68DEF8006073
:100C2000AD02754601D5164300E096432E60641C64
:100C30000A6832FA04F57FF43CAFBDE8F88F000093
:100C400000040140000011100010024000000140AB
:100C500000080140000C0140001001400014014058
:100C60008068084000D001207047C26821EA020372
:100C70000A4043EA0241016170470AB101617047CD
:100C80000904FBE70148806870470000100000205D
:100C9000024881680278114481607047100000208A
:100CA000074810B5016841F010010160032000F011
:100CB00079F8002000F006F800F024F8002010BDBC
:100CC0000020024070B50D4D04464FF47A7128782B
:100CD000B1FBF0F00A490968B1FBF0F000F0F2FA5C
:100CE00048B9102C07D200222146501E00F03AF8D5
:100CF00000206C6070BD012070BD0000100000205D
:100D00001C0000200E4808B5816941F00101816195
:100D1000816901F001010091C16941F08051C16117
:100D2000C06900F080500090052000F03BF80549B4
:100D3000486820F0E06040F00070486008BD0000A6
:100D40000010024000000140002809DB00F01F02F3
:100D5000012191404009800000F1E020C0F800111D
:100D600070470000F0B40E4B1B68C3F30223C3F1BD
:100D70000704042C00D904241D1D072D01D20023D3
:100D800000E0DB1E012606FA04F56D1E0D409D40B5
:100D90009E40761E164045EA0601F0BC01F098BE62
:100DA0000CED00E0064A00F0070110684FF6FF0363
:100DB000184040EA012003490843106070470000D2
:100DC0000CED00E00000FA052DE9F0470D460400A7
:100DD00067D0DFF81881D8F8000000F00700A842BB
:100DE0000CD2D8F8001021F007012943C8F80010F0
:100DF000D8F8000000F00700A84252D120683C4E0D
:100E0000810712D5400703D5706840F4E060706038
:100E10002078000703D5706840F4605070607068F7
:100E2000A16820F0F000084370602078C00727D048
:100E30006068012810D03168022810D08907002985
:100E40002FDA716821F0030101437160FFF71AFF87
:100E5000074641F288390CE031688903EFE78901E0
:100E6000EDE7FFF70FFFC11B494502D90320BDE89D
:100E7000F0877068616800F00C00B0EB810FF0D172
:100E8000D8F80010404601F00701A9420BD90168CB
:100E900021F0070129430160006800F00700A84223
:100EA00001D00120E3E72078400705D57068E168AC
:100EB00020F4E060084370602078000706D5706871
:100EC000216920F4605040EAC100706000F038F8F9
:100ED0007168084AC1F30311515CC84006490860B3
:100EE00006480068FFF7EEFE0020C0E70020024041
:100EF000001002401C5300081C00002014000020B9
:100F00000448054900684968044AC1F30221515C5C
:100F1000C84070471C000020001002402C530008FD
:100F20000448054900684968044AC1F3C221515C7C
:100F3000C84070471C000020001002402C530008DD
:100F400012A085B00FC88DE80F0014A0144B0068E4
:100F500004905968134801F00C02042A10D0082AA2
:100F60000ED1C1F38342C9031DF802000AD55968A6
:100F700004AAC1F34041515C0A4A5043B0FBF1F06E
:100F800005B0704708494843FAE70000020304052A
:100F9000060708090A0B0C0D0E0F101001020000C5
:100FA0000010024000127A0000093D002DE9F84FC0
:100FB00004006FD02078BE4DC00747D06868C0F3EA
:100FC0008100012807D06868C0F38100022809D198
:100FD0006868C00306D52868800337D56068002894
:100FE000E7D033E06068B0F5803F0BD010B1B0F5CA
:100FF000A02F11D0286820F480302860286820F4C1
:10100000802002E0286840F480302860606888B161
:10101000FFF738FE064609E0286840F48020286083
:10102000F0E7FFF72FFE801B642873D82868800341
:10103000F7D50BE0FFF726FE064604E0FFF722FE99
:10104000801B6428F1D828688003F7D42078DFF863
:10105000648280074FF0010A4FF0000939D56868B3
:1010600010F00C0F07D06868C0F38100022809D186
:101070006868C00306D42868800714D52069012851
:1010800008D110E02069B0B1C8F800A0FFF7FAFD60
:10109000064605E007E1FFF7F5FD801B0228C4D8EE
:1010A00028688007F7D52868616920F0F80040EAD1
:1010B000C10028600DE0C8F80090FFF7E3FD064688
:1010C00004E0FFF7DFFD801B022823D82868800793
:1010D000F7D4207800072CD57748A169D9B1C0F89A
:1010E00000A0FFF7CFFD064604E0FFF7CBFD801B15
:1010F00002280FD8686A8007F7D570484FF4FA5174
:101100000068B0FBF1F0009000BF0098411E009114
:10111000FAD20EE07CE0C0F80090FFF7B3FD06467F
:1011200004E0FFF7AFFD801B022871D8686A8007D2
:10113000F7D4207840075BD5E8690027C00008D4C1
:10114000E86940F08050E861E869012700F08050CC
:1011500000905B480168C90511D40168834641F4D9
:1011600080710160FFF78EFD064604E0FFF78AFDFF
:10117000801B64284CD8DBF80000C005F6D5E06879
:1011800001280AD008B1052813D0286A20F00100F0
:101190002862286A20F0040002E0286A40F001007A
:1011A0002862E06841F2883B88B1FFF76BFD064694
:1011B00009E0286A40F004002862EEE7FFF762FDCC
:1011C000811B59455BD8286A8007F7D50BE0FFF7EC
:1011D00059FD064604E0FFF755FD811B59454ED8E1
:1011E000286A8007F7D41FB1E86920F08050E861D1
:1011F000E069A8B36968C1F38101022946D00228D9
:10120000484606D0C8F86000FFF73CFD044639E0C8
:1012100035E04746C8F86000FFF734FD064604E0B5
:10122000FFF730FD801B022829D828688001F7D4F9
:10123000206AB0F5803F05D16868A16820F40030CD
:1012400008436860D4E908010843696821F474110F
:1012500008436860C7F860A0FFF714FD044605E086
:1012600023E0FFF70FFD001B022808D82868800143
:10127000F7D51AE0FFF706FD001B022802D903206C
:10128000BDE8F88F28688001F4D40EE00128F7D07B
:101290006868226A00F48031914204D1616A00F4E6
:1012A0007010884201D00120EAE70020E8E7000042
:1012B0000010024000004242800442421C00002014
:1012C0000070004010B5401EB0F1807F01D30120B6
:1012D00010BD4FF0E02460610F21601701F0F8FBB2
:1012E0000020A06107202061002010BD70477047DA
:1012F00070B590F83C20012A26D0012580F83C509A
:10130000022280F83D2002685368946823F070063A
:101310000B68334353600D4B02689A4208D0B2F118
:10132000804F05D00A4B9A4202D00A4B9A4204D110
:10133000496824F080031943916080F83D500021F2
:1013400080F83C10084670BD022070BD002C0140A2
:10135000000400400008004010B5040003D094F8D9
:101360003D0010B107E0012010BD002084F83C00D2
:10137000204600F01FF8022084F83D00211D20685F
:1013800001F0A4F9012084F8460084F83E0084F8B6
:101390003F0084F8400084F8410084F8420084F85B
:1013A000430084F8440084F8450084F83D000020A0
:1013B00010BD000008B500680B49884212D10B48E7
:1013C000816941F4006181618069002200F400605C
:1013D000009001211920FFF7C5FCBDE80840192045
:1013E000FFF7B2BC08BD0000002C01400010024015
:1013F00070B5044690F83C00012817D0012584F808
:101400003C50022084F83D002068826822F0770278
:1014100022F47F4282600868502830D00DDC2028FA
:101420004DD005DC98B310283BD148E0022070BDB8
:10143000302844D0402834D139E0602828D07028A2
:1014400006D0B0F5805F2CD0B0F5005F29D10AE05E
:10145000CB68D1E90121206801F07BF9206881681F
:1014600041F0770109E0CB68D1E90121206801F062
:1014700070F92068816841F48041816011E0CA6898
:101480004968206801F020FA5021206807E016E042
:10149000CA684968206801F028FA6021206801F0D4
:1014A00062F984F83D50002084F83C0070BDCA68A1
:1014B0004968206801F008FA40212068EFE72268B7
:1014C00001461046EBE7704770B5044600680169B5
:1014D0004FF00005C943890715D4C168C94389077E
:1014E00011D4E91E016101202077206880698007FE
:1014F000204602D0FFF7E7FF04E000F0BFF82046E7
:1015000000F062F9257720680169C943490717D4BB
:10151000C168C943490713D46FF004010161022077
:1015200020772068806910F4407F204602D0FFF7C2
:10153000CAFF04E000F0A2F8204600F045F9257744
:1015400020680169C943090716D4C168C94309075E
:1015500012D46FF008010161042020772068C0696F
:101560008007204602D0FFF7AEFF04E000F086F8C7
:10157000204600F029F9257720680169C943C9068A
:1015800017D4C168C943C90613D46FF010010161B3
:10159000082020772068C06910F4407F204602D0E0
:1015A000FFF791FF04E000F069F8204600F00CF925
:1015B000257720680169C943C90708D1C168C943B3
:1015C000C90704D1891E0161204600F087F920680F
:1015D0000169C943090609D4C168C943090605D48C
:1015E0006FF0800101612046FFF780FE20680169ED
:1015F000C943490609D4C168C943490605D46FF0F7
:1016000040010161204600F013FA20680169C943D6
:1016100089060BD4C168C943890607D46FF020013D
:1016200001612046BDE87040FFF761BE70BD00005B
:1016300000B585B0002100910191029103910068ED
:101640000B49884211D10B48816941F00401816145
:101650008069694600F004000490C02000900220D8
:10166000019003900448FFF715FA05B000BD000093
:10167000000400400010024000080140704770B5AF
:10168000044690F83C000D4601280AD0012084F859
:101690003C0042B1042A18D0082A2AD00C2A4DD185
:1016A00039E0022070BD206801F066F82068816989
:1016B00041F0080181612068816921F004018161A4
:1016C000206881692A69114311E0206801F080F8DF
:1016D0002068816941F4006181612068816921F499
:1016E00080618161206881692A6941EA0221816102
:1016F00024E0206801F09AF82068C16941F00801EF
:10170000C1612068C16921F00401C1612068C1691B
:101710002A69114311E0206801F0B4F82068C1691A
:1017200041F40061C1612068C16921F48061C16137
:101730002068C1692A6941EA0221C161002084F858
:101740003C0070BD10B5040003D094F83D0010B10A
:1017500007E0012010BD002084F83C00204600F086
:101760001FF8022084F83D00211D206800F0AEFF24
:10177000012084F8460084F83E0084F83F0084F895
:10178000400084F8410084F8420084F8430084F863
:10179000440084F8450084F83D00002010BD00009E
:1017A00008B500680649884208D10648C16941F079
:1017B0000201C161C06900F00200009008BD000094
:1017C00000040040001002407047000010B50446BD
:1017D00049B104290AD008290BD094F84100012806
:1017E0000AD0012010BD94F83E00F8E794F83F00BD
:1017F000F5E794F84000F2E7022041B3042929D02C
:1018000008292AD084F841000122206800F094FFC2
:1018100013492068884203D1426C42F4004242647A
:101820002068884208D0B0F1804F05D00D49884229
:1018300002D00D49884204D1816801F007010629D0
:1018400003D0016841F001010160002010BD84F85F
:101850003E00D9E784F83F00D6E784F84000D3E79C
:10186000002C0140000400400008004030B5044650
:101870000D460068002200F05FFF174A41F2111187
:1018800020688B10904209D1026A0A4206D1026A8E
:101890001A4203D1426C22F4004242642068026A78
:1018A0000A4206D1016A194203D1016821F00101FF
:1018B000016001203DB1042D08D0082D09D084F825
:1018C0004100002030BD84F83E00FAE784F83F0074
:1018D000F7E784F84000F4E7002C01402DE9F041DF
:1018E0004A4988427DD14A4803F042FB494C208155
:1018F000494803F03DFB404201B26181B4F9082040
:10190000E0684FF482661044E06090FBF6F02269D4
:1019100055182561FEF74FFE404FDFF804813A4627
:101920004346FEF75EFDFEF7A2FE606195FBF6F012
:10193000FEF741FE3A464346FEF753FDFEF797FE9B
:10194000384FA061384D3878384E022801D003282E
:1019500018D12878012815D13078012812D102F049
:1019600005F9206AFEF738FEE063A06AFEF734FE50
:10197000284920644031081F01F03EFFD4E90F01DF
:1019800002F05CF8387804281BD1E07901283BD1BB
:101990002878012838D13078012835D103F054FC5B
:1019A000606BFEF719FEE063A06BFEF715FE1949A8
:1019B00020644031081F01F01FFFD4E90F0102F03D
:1019C0003DF8387801281FD1E07801281CD128780B
:1019D000012819D13078012816D101F0F5FF606B8C
:1019E00000E011E0FEF7F8FDE063A06BFEF7F4FD08
:1019F000084920644031081F01F0FEFED4E90F01C0
:101A0000BDE8F04102F01AB8BDE8F0810001002005
:101A10004801002030000020D8010020624A24D173
:101A2000CB282E40000000202000002021000020B4
:101A3000704770B504460068C16821F49071C160B8
:101A40002068416921F001014161206841694FF03E
:101A5000000549060FD5416921F040014161606BE5
:101A600048B14563606BFEF783FF20B1606BFEF702
:101A7000EFFF202805D0E585202084F83A000020DB
:101A800070BD1020E063032070BD000038B51B4D11
:101A90000024A84213D11A488168491C8160284655
:101AA000FFF7C7FF2868016840680090EC6328468C
:101AB000BDE8384012490122491C00F0A7B9114D78
:101AC000A84219D110490A68521C0A60C06B0F491C
:101AD00008602846FFF7ADFF28680168406800905D
:101AE000EC6301220649284600F090F90849087085
:101AF00008480168491C016038BD00002002002030
:101B000004000020A0020020940000209C0000207F
:101B100098000020A000002070B5026804461068FC
:101B2000D168536910F00F0F52D003F0010501F492
:101B300090762E435FD0C20705D0CA0503D5E26B6D
:101B400042F00102E263420705D5DA0703D0E26BF7
:101B500042F00202E263820705D5DA0703D0E26BA6
:101B600042F00402E263020707D501F020022A4393
:101B700003D0E26B42F00802E263E26B002A33D04A
:101B8000800604D5880602D5204600F0D6FE2068DF
:101B90004069E16BC0F38010090700D428B32046E8
:101BA00000F0BDFE2068416949061AD5416921F05F
:101BB00040014161606BA0B12D494163606BFEF74C
:101BC000FBFE002810D0606B416BBDE870400847F9
:101BD000830610D58B060ED52046BDE8704000F078
:101BE000ACBE2046FFF752FF70BD2046FFF74EFF08
:101BF0000020E06370BD03062BD50B0629D594F8B1
:101C000039002128F6D1A068B0F5805F01D12069A4
:101C1000B0B1206A411C2162216800784860E08CE4
:101C2000401E0004000CE084E4D12068C16821F06B
:101C30008001C1602068C16841F04001C16070BD91
:101C4000206A0088C0F308005060206A801C20626F
:101C5000E5E74006F3D54806F1D5D168204621F0E6
:101C60004001D160202184F8391000F027F970BDBF
:101C70000F29000870B5040004D094F8390000253D
:101C800010B106E0012070BD84F83850204600F005
:101C900023F8242084F839002068C16821F4005119
:101CA000C160204600F090FE2068016921F4904157
:101CB00001612068416921F02A0141612068C16801
:101CC00041F40051C160E563202084F8390084F8B4
:101CD0003A00002070BD0000F0B585B000240094EB
:101CE00001940294039444490068424F0222032362
:101CF000424D0E15B84225D1886940F48040886174
:101D0000886900F480400490886940F0040088618C
:101D10008869039300F0040004904815CDE900029F
:101D200069462846FEF7B6FECDE9006469462846B6
:101D30000294FEF7AFFE002202212520FFF712F8E1
:101D4000252028E02E4FB84229D1C86940F4003040
:101D5000C861C86900F400300490886940F004004C
:101D600088618869694600F0040004900420CDE988
:101D7000000203932846FEF78DFE0820CDE90004FB
:101D8000694628460294FEF785FE0022012126209E
:101D9000FEF7E8FF2620FEF7D7FF05B0F0BD194D8E
:101DA000A842FAD1C86940F48020C861C86900F42B
:101DB00080200490886940F0080088618869124D8D
:101DC00000F00800CDE90330CDE9006269462846FD
:101DD000FEF760FEE914CDE9001401200290694687
:101DE0002846FEF757FE002201212720FEF7BAFF02
:101DF0002720D0E7003801400010024000080140D1
:101E00000044004000480040000C014090F83A3087
:101E1000202B22D1F9B1F2B190F83830012B1CD02F
:101E200081628285C2850021C163222280F83A2026
:101E300080F838100168CA6842F48072CA6001688C
:101E40004A6942F001024A610068C16841F020011C
:101E5000C1600020704701207047022070470000D9
:101E6000124A10B51249904212D148780D2804D078
:101E70000A2802D0202800D088704868401C48609A
:101E80000B490122BDE81040491C0848FFF7BEBFBE
:101E9000084A904209D1087801F0DEFB012204498A
:101EA0000448FFF7B3FF0449087010BD200200206A
:101EB00004000020A0020020980000207047FEE7E8
:101EC00070B501220E4D540221462846FEF7D5FE7C
:101ED0000122160231462846FEF7CFFE00F048F8F0
:101EE000002221462846FEF7C8FE00F041F80022F5
:101EF00031462846FEF7C1FEBDE8704000F038B814
:101F0000000C014070B50B4D4FF4007400222146C7
:101F10002846FEF7B2FE012211022846FEF7ADFE6A
:101F200000F026F821462846BDE870400122FEF761
:101F3000A4BE0000000C014070B50C4C01225102FF
:101F40002046FEF79AFE00F013F8012215022946FA
:101F50002046FEF792FE00F00BF8002229462046AC
:101F6000FEF78BFEBDE8704000F002B8000C0140A7
:101F70000320401EC0B2FCD2704700002DE9F0479C
:101F800086B000246F480094019402940394816900
:101F900041F010018161816901F0100104918169B2
:101FA00041F020018161816901F020010491816982
:101FB00041F004018161816901F0040104918169AA
:101FC00041F008018161816901F008010491816992
:101FD00041F00101816180695B4900F001000490DA
:101FE000486820F0E06040F000704860DFF85C91E5
:101FF0004D14012229464846FEF73FFEDFF8508186
:10200000002239214046FEF738FEDFF848A10122C0
:1020100011465046FEF731FE00224FF44071504603
:10202000FEF72BFE012202215046FEF726FE009508
:10203000022601250396CDE9015469464846FEF77C
:1020400029FDEF03009769464846CDE90145FEF7B3
:1020500021FD3920CDE90005CDE90246694640461B
:10206000FEF718FD40F6061000903B48CDE901054B
:1020700069464046FEF70EFDCDE9007469464046CC
:102080000294FEF707FD20208DE831006946504696
:10209000FEF700FD03960095CDE9015469465046D0
:1020A000FEF7F8FCCDE90065CDE9024669465046E9
:1020B000FEF7F0FCA8038DE8310069464846FEF7BC
:1020C000E9FC4FF25800CDE90004694650460294FD
:1020D000FEF7E0FC28021125CDE900050320CDE93B
:1020E000024069465046FEF7D5FC3002CDE90005B6
:1020F000CDE9024669465046FEF7CCFC002203219A
:102100000720FEF72FFE0720FEF71EFE0022032108
:102110000820FEF727FE0820FEF716FE0022032106
:102120001720FEF71FFE1720FEF70EFE00220321E8
:102130002820FEF717FE2820FEF706FE06B0BDE8B1
:10214000F087000000100240000001400010014034
:1021500000080140000C01400000311010B586B0AD
:1021600000241748009401940294039404941349A2
:102170000594016041F61F41C0E90114C721C0E97F
:10218000031444618461FFF7E7F808B1FEF7DAFB56
:102190004FF48050009069460948FFF729F908B1CB
:1021A000FEF7D0FB049404A905480594FFF7A0F8B6
:1021B000002801D0FEF7C6FB06B010BD002C014080
:1021C0000001002010B58AB0002407941C21684645
:1021D0000894FDF7BEFF1A481849C0E9001441F6FB
:1021E0001F41C0E90241802104618161FFF7AAFA21
:1021F00008B1FEF7A7FB079407A911480894FFF759
:1022000077F808B1FEF79EFB6020CDE90004029448
:10221000002269460A480494FFF731FA08B1FEF734
:1022200091FB042269460648FFF729FA08B1FEF738
:1022300089FB0348FFF7FCF90AB010BD0004004019
:10224000900100200C4810B50A4901604FF4165166
:102250004160002181600C22C160C0E904128161EB
:10226000C161FFF707FD002803D0BDE81040FEF76D
:1022700069BB10BD00380140200200200C4810B599
:102280000A4901604FF416514160002181600C221F
:10229000C160C0E904128161C161FFF7EBFC002855
:1022A00003D0BDE81040FEF74DBB10BD0048004014
:1022B000A0020020FEE7FEE730B40021084B0A46EA
:1022C000002003EBC004401CC0B262548028F8D345
:1022D000491CC9B20829F3D330BC00F0ABB80000E8
:1022E000E002002028B1012806D10021A72000F03B
:1022F0005FB90021A620FAE7704710B558B1012850
:1023000010D10021C02000F053F90021A020BDE829
:10231000104000F04DB90021C82000F049F900211B
:10232000A120F4E710BD000030B5CC0801F0070390
:1023300001259D40EBB2064D05EBC005C808285CA1
:102340000AB1184302E063EA0000C043285530BDDB
:10235000E002002010B5C820FEF77CFB0021AE2073
:1023600000F026F90021084600F022F90021102093
:1023700000F01EF90021402000F01AF90021812010
:1023800000F016F90021CF2000F012F90021A12061
:1023900000F00EF90021C82000F00AF90021A62063
:1023A00000F006F90021A82000F002F900213F20EA
:1023B00000F0FEF80021D32000F0FAF800210846D2
:1023C00000F0F6F80021D52000F0F2F8002180207E
:1023D00000F0EEF80021D92000F0EAF80021F12009
:1023E00000F0E6F80021DA2000F0E2F800211220E7
:1023F00000F0DEF80021DB2000F0DAF800213020C8
:1024000000F0D6F80021202000F0D2F800210220B0
:1024100000F0CEF800218D2000F0CAF80021142031
:1024200000F0C6F8FFF748FF0021BDE81040AF20DC
:1024300000F0BEB870B5174E002505F1B000C0B26F
:10244000002100F0B5F80021084600F0B1F80021A5
:10245000102000F0ADF8FFF733FD782000F0C6F84B
:10246000FFF76AFD402000F0C1F8FFF765FD00248A
:1024700006EBC400405D00F0B9F8FFF75DFD641C99
:10248000E4B2802CF4D3FFF73DFD6D1CEDB2082DB6
:10249000D3D370BDE00200202DE9FC4F1D468846D5
:1024A00081468B460090082B0DD0680700D0012094
:1024B00000EBD50069084843C0B2203A02F0FF0A99
:1024C0000026019046E00620F7E7082D10D00C2DDD
:1024D00014D0102D16D0182D3FD122490AEBCA0076
:1024E00001EB80000027845DE0070FD00B9A10E01D
:1024F0001D490AEB4A0001EB4000F3E70AEB4A00F2
:102500001A49EDE71A4901EB0A10EBE70B9830B3D3
:10251000002241464846FFF707FF7F1C640808F188
:102520000100FFB200F0FF08082FDDD309F1010020
:1025300000F0FF09082D0AD00099A9EB0100B0EBCB
:10254000550F04D10BF10800894600F0FF0B761CF3
:10255000D846F6B201988642B7D3BDE8FC8F012277
:10256000D7E70000C05F0008345300085C5500083E
:10257000D05900082DE9F8411E4615468846044604
:10258000079F0BE03346414620460097FFF784FF44
:10259000082E0AD004EB5600C4B26D1C2A78A2F1B2
:1025A00020005E28EED9BDE8F881A41DE4B2F4E76E
:1025B00070B50C460546FFF783FC782000F016F84E
:1025C000FFF7BAFC0CB1402000E0002000F00EF84C
:1025D000FFF7B2FC284600F009F8FFF7ADFCBDE8B4
:1025E0007040FFF78FBC7047704700002DE9F04145
:1025F000124F002405464FF40078BE15280601D579
:10260000012200E0002241463846FEF736FBFFF784
:10261000AFFC012231463846FEF72FFBFFF7A8FC3E
:10262000002231463846FEF728FB6806641C050E7A
:10263000E4B2082CE2D3BDE8F0810000000C0140B8
:10264000FEF726BB30B58FB028216846FDF781FD27
:1026500014210AA8FDF77DFD0120010400248DE866
:10266000130004904FF4E010CDE9081002250795FF
:102670006846FEF79BFC60B90F20CDE90A056802A9
:10268000CDE90C4002210AA80E94FEF79DFB00281C
:1026900001D0FEF757F90FB030BD70470148FEF783
:1026A00013BF0000000100200148FEF70DBF00002D
:1026B000480100200148FEF707BF000090010020FC
:1026C0000148FEF701BF0000D8010020F0B5026804
:1026D000164C174D174E4FF08047A04205D0B84218
:1026E00003D0A84201D0B04203D122F070034A685F
:1026F0001A43A04205D0B84203D0A84201D0B0424C
:1027000003D122F44073CA681A434B6922F0800255
:102710001A4302608A68C2620A688262A04201D1DA
:102720000969016301214161F0BD0000002C0140F5
:10273000000400400008004010B501F01F01012313
:10274000046A8B409C430462036A8A401343036219
:1027500010BD10B5846842EA032224F47F440A4382
:102760002243826010BD826822F070020A4342F068
:10277000070181607047000030B5026A22F0010253
:102780000262036A4268846924F073050C682C4372
:1027900023F002058B682B430C4DA84206D123F091
:1027A0000805CB6843EA050323F0040307D14D690C
:1027B00022F4407245EA02058A6942EA0502426053
:1027C000846149684163036230BD0000002C014010
:1027D00030B5026A22F010020262026A436884691C
:1027E0000D6824F4E64444EA05248D6822F02002B2
:1027F00042EA05120C4DA84206D1CD6822F08002B3
:1028000042EA051222F0400207D14D6923F44063E9
:1028100043EA85038D6943EA85034360846149681F
:102820008163026230BD0000002C014030B5026AB5
:1028300022F480720262036A4268C46923F400735E
:1028400024F073050C682C438D6843EA05230C4D76
:10285000A84206D1CD6823F4006343EA052323F49C
:10286000806307D14D6922F4405242EA05128D6916
:1028700042EA05124260C4614968C163036230BD27
:10288000002C014030B5026A22F480520262036AD1
:102890004268C4690D6824F4E64444EA05248D685E
:1028A00023F4005343EA0533064DA84204D14D6991
:1028B00022F4804242EA85124260C46149680164A0
:1028C000036230BD002C014010B5046A036A23F096
:1028D00001030362836923F0F00343EA021324F047
:1028E0000A020A438361026210BD10B5036A23F035
:1028F000100303628469036A24F4704444EA0232D8
:1029000023F0A00343EA01118261016210BD10B5FA
:10291000406A0021C185C184FFF7B8F810BD016885
:10292000CA6822F49072CA6001684A6922F0010202
:102930004A61202180F83A10704710B590F83A109B
:10294000222901D0022010BD81684FF480539942A2
:1029500001D1026922B1826A99421BD049B10AE0D1
:102960000268816A5268C2F308020A80816A891C7F
:1029700008E0016971B10168496801F07F011170D7
:10298000816A491C8162C18D491E0904090CC185F7
:1029900003D016E001684968F1E70168CA6822F0CF
:1029A0002002CA600168CA6822F48072CA600168A5
:1029B0004A6922F001024A61202180F83A10FFF7AB
:1029C0004FFA002010BD000070B504460068016990
:1029D000E26821F4405111430161A168206901437B
:1029E000606901432068C26841F20C639A430A435C
:1029F000C26020684169A26921F4407111434161BC
:102A00001E492068884202D1FEF78AFA01E0FEF7EB
:102A100077FA00EBC00101EB0011606864228000CE
:102A2000B1FBF0F3B3FBF2F36FF018067343B1FBA5
:102A3000F0F5B1FBF0F605EB8305322303EB05154A
:102A4000B5FBF2F5B6FBF2F605F0F00505EB061561
:102A5000B1FBF0F6B1FBF0F0B0FBF2F06FF0180153
:102A6000484306EB800003EB0010B0FBF2F0216856
:102A700000F00F002844886070BD0000003801405D
:102A80000148FFF749B80000200200200148FFF785
:102A900043B80000600200200148FFF73DB8000085
:102AA000A0020020FEE700000FB4084B10B504A9F7
:102AB00002AA039800F0EEF8044602A9002000F0F4
:102AC00080FC204610BC5DF814FB0000C3330008F6
:102AD0000907090E002804DB00F1E02080F800144B
:102AE000704700F00F0000F1E02080F8141D7047DF
:102AF00002E008C8121F08C1002AFAD170477047C7
:102B0000002001E001C1121F002AFBD17047000024
:102B10002DE9FF5F82B00021DDE90430020DDDF810
:102B200040B0034318D044F61050A2F2FF324243A3
:102B30001514119801281FD0A5EB0B00401C5FEA6B
:102B4000000A4FF000064E4FDFF83891B04650466D
:102B500015D5CAF1000413E0119801244AA30128F5
:102B600001D16FEA0B010298119AC0E90031C0E966
:102B7000024206B0BDE8F09FCBF10000DFE704465B
:102B80000021404A491842EB0450CDE9001012E000
:102B9000E00707D032463B4640464946FDF721FC58
:102BA0008046894632463B4610461946FDF719FCD9
:102BB00006460F466410002CEAD1DDE90401DDE988
:102BC0000023BAF1000F06DAFDF70BFC42464B4634
:102BD000FDF707FC05E0FDF776FC42464B46FDF7A6
:102BE00072FC04460E460022284BFDF771FE03D806
:102BF0004FF0FF30014607E00022254B20463146CA
:102C0000FDF748FBFDF74BFE102409E0002C0ADB22
:102C10000A220023FDF75DFD039B30321A55641E26
:102C200050EA0102F2D1641C039AC4F11103144466
:102C3000119A012A03D0012208430DD10AE008436A
:102C400004D000204FF0110B119072E7A3EB0B059D
:102C50006D1E0DE05B4504DD4FF0000205F101053E
:102C600004E003DA4FF00002A5F10105002AECD0E0
:102C700002981199C0E90231C0E9004579E70000E6
:102C8000000014400000F03F300000000000F0435E
:102C90000000E03F2DE9FF4F95B09B468946064670
:102CA00000250FE2252877D100242746F84A012184
:102CB000059400E0044316F8013F203B01FA03F0BD
:102CC0001042F7D130782A2811D06FF02F033078D6
:102CD000A0F13002092A16D8059A44F0020402EB4A
:102CE000820203EB42021044761C0590EFE759F88C
:102CF000042B0592002A03DA504244F40054059054
:102D000044F00204761C30782E2816D116F8010FF4
:102D100044F004042A280DD06FF02F023078A0F17F
:102D20003003092B09D807EB870302EB4303C718CD
:102D3000761CF3E759F8047B761C30786C280FD0AA
:102D400006DC4C2817D068280DD06A2814D104E07E
:102D5000742810D07A280FD10DE044F400140AE052
:102D600044F4801401E044F440147278824202D1A9
:102D700004F58014761C761C307866280BD013DCA2
:102D8000582877D009DC002875D04528F6D0462889
:102D9000F4D047281AD19DE118E0632835D0642883
:102DA00079D0652812D195E1702873D008DC6728A6
:102DB000F1D069286FD06E280DD06F2806D1B5E00C
:102DC00073282CD0752875D0782874D05A46179956
:102DD00090476D1C75E1C4F30250022809D0032806
:102DE0000DD0D9F8001004280DD00D6009F10409A8
:102DF00067E1D9F80010EA17C1E90052F6E7D9F8FF
:102E000000100D80F2E70D70F0E719F8041B8DF843
:102E1000001000208DF80100EA46012003E059F877
:102E200004AB4FF0FF3061074FF0000102D40DE01A
:102E300008F101018846B9420FDA8045F8DB1AF83B
:102E400008100029F4D108E008F101018846814208
:102E5000FADB1AF808100029F6D105985B46A0EBBA
:102E6000080721463846179A00F094FA284400EBE8
:102E7000080507E04DE029E10DE01AF8010B5A467C
:102E800017999047B8F10108F7D25B4621463846BA
:102E9000179A13E142E00A220092C4F302524FF063
:102EA000000A022A08D059F804CB032A4FEAEC7131
:102EB0000AD00DE029E02AE009F1070121F007021C
:102EC000F2E802C1914609E00FFA8CFC4FEAEC717E
:102ED000042A03D14FFA8CFC4FEAEC71002907DA7F
:102EE0000A460021DCF1000C61EB02012D2202E018
:102EF000220504D52B228DF80420012203E0E207ED
:102F000001D02022F7E7904659E00A2102E0102282
:102F10000DE010214FF0000A00910BE010224FF05D
:102F2000000A44F004040827009203E008224FF04E
:102F3000000A0092C4F30252022A05D059F804CBC9
:102F40000021032A08D009E009F1070121F0070256
:102F5000F2E802C1914605E01FFA8CFC042A01D177
:102F60000CF0FF0C4FF00008220728D5702806D07F
:102F7000009B83F0100353EA0A0305D00EE04022C1
:102F80008DF80420012208E05CEA010206D030221C
:102F90008DF804208DF8050002229046009B83F0F6
:102FA000080353EA0A030AD15CEA010201D162076D
:102FB00005D530228DF804204FF001087F1E5828D7
:102FC00004D034A003900EA802900DE036A0F9E7DB
:102FD00053466046009AFDF77CFB84460398825C6A
:102FE0000298401E029002705CEA0100F0D1029843
:102FF00006A9081A00F1200A600702D524F48034DB
:1030000000E00127574502DDA7EB0A0000E00020A1
:1030100000EB0A01009005984144401A0590E00336
:1030200006D45B462146179A059800F0B3F905448B
:10303000002706E001A85A46C05D179990476D1C0D
:103040007F1C4745F6DBE0030CD55B462146179A0B
:10305000059800F09FF9054404E030205A4617997E
:1030600090476D1C0099481E00900029F5DC08E08F
:10307000029802995A460078491C02911799904784
:103080006D1CBAF10001AAF1010AF1DC65E1000052
:10309000092801003031323334353637383961622E
:1030A00063646566000000003031323334353637F2
:1030B00038394142434445460000000000F058F9C9
:1030C0000544761C307800287FF4ECAD19B0284612
:1030D000BDE8F08F620700D4062709F1070222F04D
:1030E000070CFCE80223E14603F000485FEA080C05
:1030F00002D00FF2702C0DE05FEA045C02D50FF2F3
:10310000682C07E05FEAC47C02D00FF2602C01E07B
:10311000AFF2700C4FF0FF3823F00043CDF850C0F1
:1031200065280CD006DC452809D046281DD0472844
:103130003DD13DE0662818D067287ED138E00021D7
:10314000112F01DB112000E0781CCDE9000106A958
:103150000EA8FFF7DDFCDDE90F010E9A03910021B7
:10316000009207F1010A04914DE04FF000400097F2
:10317000CDE9011006A90EA8FFF7CAFCDDE90F0290
:1031800003920E9B11990022DDF80CA0009304928B
:1031900011B9791C00EB010AB7EB0A0004D4C0F1A5
:1031A000FF3007F1010A0490AAEB0700019044E008
:1031B000012F00DA01270021112F01DD112000E08D
:1031C0003846CDE9000106A90EA8FFF7A1FCDDE90C
:1031D0000F010E9A0391002104910092BA46210733
:1031E0000CD40399514500DA8A46BAF1010F05DD86
:1031F000009AAAF10101515C302908D0B84202DAE4
:1032000010F1040F06DA0121CDE9011015E0AAF151
:103210000101E9E7002805DC049901440491AAEBC7
:10322000000102E0411C514500DD8A460499401A24
:10323000401C01904FF000400290200704D40198F8
:10324000504501DBCDF8048000208DF84F00029836
:103250000DF14F07B0F1004F25D02B200E900298B2
:103260004FF0020800280CDA404202902D200E9008
:1032700007E00A210298FDF716FA3031029007F8AC
:10328000011DB8F10001A8F10108F2DC0298002844
:10329000EFD1791E0E980870307800F0200040F0D1
:1032A000450007F8020D12A8C01B00F1070814988A
:1032B000007800B1012000EB0A01019801EBE071F8
:1032C00005984144401A401E0590E00306D45B4631
:1032D0002146179A059800F05DF805441498007887
:1032E00018B15A46179990476D1CE00324D55B46E8
:1032F0002146179A059800F04DF805441CE0049803
:10330000002807DBDDE90301884203DD0098405C0B
:10331000179901E0179930205A469047049805F113
:103320000105401C04900198401E019004D12E20FC
:103330005A46179990476D1CBAF10001AAF1010A8B
:10334000DDDC05E017F8010B5A46179990476D1C14
:10335000B8F10001A8F10108F4DC5B462146179A98
:103360000598ABE62D0000002B00000020000000B7
:103370002DE9F041044600251E461746880404D472
:1033800005E039462020B0476D1C641EF9D528465B
:10339000BDE8F0812DE9F041044600251E46904627
:1033A000C80301D5302700E02027880404D505E0B4
:1033B00041463846B0476D1C641EF9D52846BDE825
:1033C000F0810A68531C0B60107070472DE9F041C2
:1033D0004FF47A761C4615460F46B14200DA0E4687
:1033E00042280ED0462806D04C2816D052281AD093
:1033F000002028600AE0384600F0C7F82860384608
:1034000002E07842064609E000F0BFF8014620607D
:103410002868BDE8F04100F011BB704200F0B5F83B
:1034200028603046F0E7304600F0AFF82860704280
:10343000EAE700002DE9F8430746984615460E4690
:103440000620DDF8209001F0F5FB02460124002162
:10345000082308460094FFF78DF8002F3AD01FA2EA
:103460002048036820A12448FFF71EFB0823224AB6
:103470000A2100200094FFF77DF8002E2CD0314661
:103480000A462B461DA11C48FFF70EFB08231A4ACB
:10349000162100200094FFF76DF84B4642461BA111
:1034A0001548FFF701FB0823134A2221002000944E
:1034B000FFF760F8082318A22E2100200094FFF7E0
:1034C00059F8082318A2382100200094FFF752F879
:1034D000BDE8F88318A2C3E75321D1E74F4E20205F
:1034E000000000000800002052756E3A257320523B
:1034F000583A256C75000000CC000020436D643AFA
:103500002563205370643A25346400004C3A253416
:103510006420523A25346400462042204C20522038
:103520005320302D390000004B302052554E204B97
:1035300031204D454E5500005341464500000000E6
:1035400070B50D4C0546002202212046FDF795FB83
:10355000002201212046FDF790FB2846FDF77AFA6C
:10356000012211462046FDF788FB2046BDE8704049
:1035700001220221FDF781BB000C0140012801D08E
:10358000012070474FF0FF3070474FF416618842BA
:1035900002DC4942884200DA0846704710B1022036
:1035A000FFF7ECBF0120FBE770B5154D154C042863
:1035B00015D0022813D0E914CB10884201D09842CC
:1035C0000CD128462A4600F01FF8054601466078CF
:1035D00000F02EF8A1680844A060657070BD022359
:1035E00028462A46042100F00FF8054601462078B7
:1035F00000F01EF8616808446060257070BD00002E
:10360000000801402400002070B51D461646FDF755
:1036100027FB01280AD0002429463046FDF720FB6D
:10362000012800D0002040EA440070BD0124F3E7E7
:1036300041EA8000014908567047000044710008C3
:10364000002800DC40427047012803D0022801D046
:1036500000207047012070472DE9F041324C0021D5
:103660006268521C626060702278304DEAB10026B8
:10367000552818D0A854521CD0B220700B2819D34A
:1036800000202A5C401C1144C0B2C9B20A28F8D3F9
:10369000AA7A8A4202D1687853280DD08A423ED154
:1036A0006878A0703EE0267001E0552802D12870AD
:1036B00001202070BDE8F081A070A978E87841EA87
:1036C000002000B2FCF76EFF6FF00E073946FCF7E2
:1036D000D5FDDFF85C804146FCF79EFD206129792D
:1036E000687941EA002000B2FCF75CFF3946FCF73C
:1036F000C5FD4146FCF790FD6061A879E97940EA93
:10370000012000B2FCF74EFF3946FCF7B7FD4146F9
:10371000FCF782FDA061A068401CA06002E0E068A8
:10372000401CE0602670C5E77800002020080020DB
:10373000000034432DE9F04115460E460746FDF7DB
:103740008FFA012800D000202978002401290CD10B
:1037500058B90A20FDF77EF931463846FDF780FA60
:10376000012800D0002000B9012428702046BDE8BF
:10377000F08100002DE9F04700241C4D1C4FDFF8BC
:10378000749001264FF4804808B12E7001E028782B
:1037900048B120213846FDF763FA58B14146484602
:1037A000FDF75EFA30B120213846FDF759FA0128BD
:1037B00012D018E00A20FDF74DF9002028702021D2
:1037C0003846FDF74DFA00B9012441464846FDF759
:1037D00047FA40B9022406E041464846FDF740FA60
:1037E000012800D12E702046BDE8F087A4000020FB
:1037F000000C01400010014010B541F6583302683A
:103800005C429A4201DD036002E0A24200DA0460F9
:103810000868984201DD0B6010BDA042FCDA0C6024
:1038200010BD000070B500F075F800230C4D1A466D
:103830001946012606FA01F4044203D06C56521CC4
:103840002344D2B2491CC9B20829F3D305494A70AE
:103850001AB193FBF2F0486070BD0020486070BD63
:1038600054710008C400002008B1002070470120F6
:103870007047000010B5FFF7D5FF05494864FCF715
:1038800091FE0146BDE81040024800F005B8000076
:1038900030000020000800202DE9F04104460068B7
:1038A000FCF7B4FC4FF07E51A060884203DA10F1BF
:1038B000814F00D2A160A068E2690546014610462A
:1038C000FCF752FC1149E061884202DA1049884253
:1038D00000D9E1612846E168FCF798FCA169FCF792
:1038E0009BFC0646E1696069FCF796FC07462946A1
:1038F0002069FCF791FC3946FCF736FC3146FCF7B1
:1039000033FCE5606060BDE8F081000000007A44AF
:1039100000007AC470B5294D00244FF48051284628
:10392000FDF79EF9FFF7A0FF00B101244FF400510D
:103930002846FDF795F9FFF797FF08B144F0020418
:103940004FF480412846FDF78BF9FFF78DFF08B152
:1039500044F004044FF4004631462846FDF780F950
:10396000FFF782FF08B144F0080440212846FDF724
:1039700077F9FFF779FF08B144F010043146104899
:10398000FDF76EF9FFF770FF08B144F0200408213D
:103990002846FDF765F9FFF767FF08B144F04004DA
:1039A00010212846FDF75CF9FFF75EFF08B144F0EF
:1039B000800404480470204670BD0000000C0140E3
:1039C00000080140C400002070B5164800780128A6
:1039D00003D015480078012822D1144CA078401C4F
:1039E000C0B2A070022804D30020A070FFF742FFED
:1039F00020630F4D216B2846FCF708FC01460D485B
:103A000001F016FB2946206BFCF7AEFB01460A4885
:103A100001F00EFB01F00EFB606301F031FBA063CF
:103A200070BD000020000020210000203000002098
:103A30000000C842600700208007002070B51A4CC3
:103A40000E46051E06DD002210212046FDF715F961
:103A5000012205E0012210212046FDF70EF9002287
:103A600020212046FDF709F92846FFF7E9FD0F4D13
:103A700029684863002E06DD002208212046FDF754
:103A8000FCF8012205E0012208212046FDF7F5F8A7
:103A9000002201212046FDF7F0F83046FFF7D0FD67
:103AA0002968886370BD0000000801409001002073
:103AB000084810B5C068FCF775FD0146064800F0DF
:103AC0002BF80649884202DC0549884200D908469D
:103AD00010BD000030000020A00700200000C842F8
:103AE0000000C8C2084810B50069FCF75BFD01463C
:103AF000064800F011F80649884202DC0549884270
:103B000000D9084610BD000030000020C00700208A
:103B10000000C8420000C8C22DE9F0410446006818
:103B2000FCF774FB0546A0602946E069FCF71CFB26
:103B3000E06107462846E168FCF768FBA169FCF7ED
:103B40006BFB064639466069FCF766FB074629466B
:103B50002069FCF761FB3946FCF706FB3146FCF7B0
:103B600003FBE5606060BDE8F0810000134810B51C
:103B70000078012803D01248007801281CD1114C8C
:103B80002078401CC0B22070022807D3002020708B
:103B9000FFF78EFF6062FFF7A5FFE0620A48616AE7
:103BA00001F046FA0948E16A01F042FA01F042FAEE
:103BB000206201F065FAA06210BD00002000002024
:103BC0002100002030000020600700208007002036
:103BD000ACB000201F902B9027902990CDE90700D2
:103BE00000270A90099001208DF884008DF880004C
:103BF0008DF88800002025971E9726971697249702
:103C0000149717971D970F97119015901C971B905D
:103C100013901A90199012902A90109018900420E6
:103C20000B9000200C9053200E904FF496600D9056
:103C300023970020BB46BA46B9463E463C4601257E
:103C40002890FDF72DF8FEF7FDFCFEF797F9FEF73B
:103C500085FAFEF7B7FAFEF7F5FAFEF70FFB00213B
:103C6000F748FDF7B3FD0421F548FDF7AFFD01F07E
:103C700033F9F44BF44AF549F54801F0D5F901223E
:103C8000F449F548FEF7C2F80122F449F448FEF77A
:103C9000BDF8F4490870FEF75DFB0020FEF722FB3B
:103CA0000020FEF72AFB01F0A1F8EF4908702998DF
:103CB000401C1921B0FBF1F2299001FB120020B940
:103CC0004FF40051E948FCF7D0FFDFF89C8398F8E7
:103CD000000006287ED0E64802682B998A4269D007
:103CE00000682B90002027901F9898B9E14808A9F8
:103CF000006801F05BF998F80000042808D1DE495B
:103D0000D348089101F094F9D1480021C161C16004
:103D100001201F90D7480168CD4801F03FFA10F10B
:103D2000FF4F01D2014601E080F00041D34A9042AA
:103D300002DCD34A904201D9104607E0D14A9042B2
:103D400004D2D14A904201DA002008E0CF4A9142E1
:103D500005DAB0F5000F01DB104600E0CC48FCF7B7
:103D60003BFC4FF416710790884201DD079104E097
:103D70000146C848814200DA0790259860B107984B
:103D80004042FFF702FC0A900798FFF7FEFB0990FC
:103D900067B101460A9823E00799ABEB0100FFF7F2
:103DA000F4FB07990A900BEB0100EEE700200A9064
:103DB000099013E01F980028F8D02798401CC0B243
:103DC00027900A280ED90A202790002007900A90F1
:103DD0009F4900E006E00990C861C86000210846DC
:103DE000FFF72CFE20AA2021AB48FFF7A3FC01908F
:103DF00021AA4FF480419D48FFF79CFC009022AA25
:103E00004FF400419948FFF795FC58B12820FFF77F
:103E100097FB98F80000052804D11FB90B98401CA7
:103E2000C0B20B90019800280FD02820FFF788FB24
:103E300098F80000062809D0DFB1179800287AD03A
:103E40000027BB46179701F03BF880E04FB10027F1
:103E5000532009970A970E9001F032F801F072F999
:103E600075E0012701F0BCF801F0D2F801F072F919
:103E70006DE002282FD903282DD004282BD0052847
:103E800029D000214FF0000ACDF83CA0CDF870A059
:103E9000CDF890A0CDF88CA0CDF844A0CDF854A0DA
:103EA000CDF848A0D14656465446CDF850A0CDF89E
:103EB0006CA0CDF84CA0CDF868A0179104280CD0C8
:103EC000012500201890109098F8000003280BD0CE
:103ED000052809D009E00121D4E70025FCF7D2FE2E
:103EE0002A9000201990ECE70120FFF747FB0C9087
:103EF000FCF7C8FE1E9000201D90169001F022F9DC
:103F0000012701F06DF801F083F81F98F8B15948C6
:103F100008A9006801F04AF898F80000042816D1B2
:103F200055494B48089101F083F849480021C16187
:103F3000C1600CE0FFE72598002864D000202590A0
:103F40001F9820B14B4808A9006801F02FF800988D
:103F5000F0B35020FFF7F4FA0027002017972597B9
:103F60001C971D9716972497CDE9127011971597F6
:103F70001B901A901890109004200B900F974FF000
:103F8000000B532023970E9014974FF49660CDF8B2
:103F9000A0B0BA46B9463E463C460125CDF828B009
:103FA000CDF824B0CDF81CB00D9000F089FF01F0E1
:103FB000C9F8FEF781F9012000210090102337A2F3
:103FC0000846FEF7D7FA0120082338A2182100E09E
:103FD0001BE000900020FEF7CDFAFEF72BFA4FF41D
:103FE000FA70FCF737FD00F001FF88F800000020B0
:103FF00026901F9800283FF45AAE1E4808A9006872
:1040000000F0D4FF53E6012099E71748007806280E
:1040100054D0002F72D01798002870D0FFF702FC00
:1040200000901148007848B1042869D0052868D06C
:104030008046FFF709FB002875D187E2C9E0000040
:10404000900100200000C0400AD7A33D0000B0410D
:10405000E0070020050000202002002004000020CE
:10406000A002002098000020000000200010014065
:104070008000002090000020000040C20000484561
:10408000000048C5000034C3000034430000E14490
:104090000000E1C4A8FDFFFF000C014045786974F1
:1040A00020546F204D656E75000000004D6F746FD9
:1040B00072732073746F707065640000FD4890F82F
:1040C00000805FEA080140D000210170FCF7DAFDB2
:1040D0002890A8F13000092816D8B8F1300F11D077
:1040E000C82108FB01F0A0F50C50F0380D900E9897
:1040F00053282AD009AB0AAA0D9924E0FDE3FDE379
:104100009EE002E20020F1E7A8F161014046192992
:1041100001D82038C0B24C280BD005DC422808D08A
:10412000462805D105E014E2522802D0532800D0D9
:10413000002050B10E90EFB1532825D05FB3DDE9D8
:104140000D1009AB0AAAFFF741F927B30E985328BF
:104150002BD0FCF797FD2899411A40F2DC508142A0
:1041600023D353200E9000200A9001460990FFF7B8
:1041700065FC1AE0532807D0012700F031FF00F05A
:1041800047FF00F0E7FFDAE700200A9001460990B8
:10419000FFF754FCD9E700200A9001460990FFF789
:1041A0004DFC00F011FF00F027FFFCF76BFD269996
:1041B000401A64287ED3FCF765FD2690FEF77CF854
:1041C00009980090DDE90D2138460A9BFFF732F986
:1041D000F0E3139820B301280FD000210846FFF721
:1041E0002DFC00200A900990FCF74CFD1A99401A0A
:1041F000962871D3002013904CE24FF496600A90F9
:1042000001460990FFF71AFCFCF73CFD1A99401A89
:10421000C828EED302201390FCF734FD1A9015E263
:10422000A548007808B10024F0E2641CE4B2032C35
:10423000FAD3012000241390FCF724FD1A90B7E272
:10424000DDB1012D49D0092D7AD0052D79D0062D6B
:1042500078D0072D77D0082D76D0032D75D0042D7A
:1042600074D0189820B1FCF70DFD1899401A5AD453
:104270009148007800286AD055E007984042FFF73F
:1042800084F90A900798FFF780F9014609900A9887
:10429000FFF7D4FB89480168089801F007F88849BE
:1042A00088420ADC1998082811D2401CC0B2199023
:1042B000082800E0AEE30AD201E000201990FCF7E4
:1042C000E1FC2A99411A40F2DC5081422CD30125AD
:1042D000FCF7D8FC1E9027E031E0DDF81C80B8F137
:1042E000B40F01DDB42003E06FF0B300804500DAC5
:1042F0008046C8F56170FFF748F90A9008F56170CB
:10430000FFF743F9014609900A98FFF797FBFCF77E
:10431000B9FC1E99401AB0F5487F05D3664800786D
:10432000022801D302250024FCF7ACFC1E99401A98
:1043300047F23051884202D3BAF1000F7ED05AE2E0
:1043400006E012E030E043E051E060E07AE09FE018
:10435000594800780028E7D05848002602253446FE
:1043600008A9006800F022FEDEE756490C98484391
:10437000FFF70BF90A900C9840F252314843FFF7CF
:1043800004F9014609900A98FFF758FB4B48016869
:10439000089800F08BFF4C498842C5DC0625FCF7E5
:1043A00071FC0026109043E000210846FFF746FB11
:1043B00000200A900990FCF765FC1099401AC82863
:1043C000B2D3092501260220FFF7D8F80C908AE025
:1043D0004FF461700A9001460990FFF72FFBFCF73C
:1043E00051FC1099401AC8289ED308251DE00021D1
:1043F0000846FFF723FB00200A900990FCF742FCD7
:104400001099401A96288FD34FF0010A8CE74FF489
:1044100061700A9001460990FFF710FBFCF732FC2F
:104420001099401AC8289FD30425FCF72BFC109044
:1044300000210846FFF702FB002000E0BEE00A90E2
:10444000099071E700210846FFF7F8FA4FF00008DD
:10445000CDF82880CDF82480FCF714FC1099401A80
:104460009628D3D305250220FFF788F80C9013482F
:1044700001261649006800F037FF014608901448ED
:1044800000F0D6FD1249C1F81C80C1F80C804BE742
:10449000641CE4B2032CB9D309F1010000F0FF0958
:1044A00000243220FFF74CF8B9F1030F12D307258F
:1044B00020E0000006000020C50000209000002041
:1044C00000004040AEFCFFFF000020410000FA4227
:1044D000E0070020B9F1010F0BD009250220FFF7FA
:1044E0004DF801260C90FCF7CDFB00F2DC50189043
:1044F0001AE70325FCF7C6FB10904FF461700A9091
:1045000001460990FFF79AFA0EE72EB1FC480078B1
:1045100000287DD0002604E0F94909785AEA010014
:1045200001D0002479E1641CE4B2032CFAD309F130
:10453000010000F0FF0900243220FFF701F80B9979
:1045400089453BD20120FFF719F8A1E0B8F1030F2C
:104550007ED1DFF8B08398F80000032816D1B9F1B6
:10456000090F13D3119888B9BAF1000F0ED10120A9
:1045700000261190FCF786FB1490022015904FF452
:1045800096600A9001460990FFF758FA98F80000E3
:10459000FFF75AF830B3129820B301280FD000214A
:1045A0000846FFF74BFA00200A900990FCF76AFBD7
:1045B0001B99401A96284BD3002012906AE04FF4C2
:1045C00096600A9001460990FFF738FAFCF75AFB0B
:1045D0001B99401AC8283BD302201290FCF752FBCB
:1045E0001B9033E098F80000032856D1119A82B34B
:1045F000012A19D000210846FFF720FA4FF00008E1
:10460000CDF82880CDF82480FCF73CFB149900E01D
:10461000F8E0401A96281BD3002011901598012825
:104620001FD0022836D0DFE04FF496600A90014692
:104630000990FFF703FAFCF725FB1499401AC828E4
:1046400006D302201190FCF71DFB1490002101E01D
:104650004FE022E00846FFF7F1F900200A900990A8
:10466000C9E001200F9000201C90FCF70BFB1D906F
:10467000A648A549006800F037FE01460890A44806
:1046800000F0D6FCA249C1F81C80C1F80C80ADE056
:104690000C90A9E04FF0010AADE05EB3032802D10F
:1046A0000F98012804D09648007810B30026A1E0A6
:1046B0001C9848B995480168089800F0F7FD95499D
:1046C000884216DC01201C900026022034460F9000
:1046D000FEF764FF0C9000201D90FCF7D3FA00F564
:1046E0009660169000202390884808A9006800F082
:1046F0005DFC80E0824A1278F2BB032816D1249830
:1047000040B1FCF7BFFA2499401A73D498F800001E
:1047100003280BD10F98022808D1239830B116989E
:1047200020B1FCF7AFFA1699401A63D4641CE4B2C6
:10473000032C60D309F1010000F0FF0900243220AE
:10474000FEF7FEFE98F80000032820D1FCF79AFA45
:1047500000F2DC50249098F80000032817D10F983D
:1047600002280ED1169860B1FCF78CFA1699401AFF
:1047700001D50120239000E03CE098F800000328D8
:1047800005D1B9F1040F1BD0B9F1090F20D298F867
:104790000000FEF759FF18B3B9F1040F20D398F8C1
:1047A0000000032814D001201290FCF76BFA1B9034
:1047B0004FF496600A9001460990FFF73FF91AE01E
:1047C00001201190FCF75EFA14900120159012E080
:1047D00001201190FCF756FA149002201590E7E79B
:1047E00098F80000032801D0012604E00F98FEF796
:1047F000D5FE4DE7002443480078042806D1022D59
:1048000004D096B3BAF1000F31D052E0002EF9D1A6
:104810003C48007808B9139840BBDFF8E88098F866
:104820000000FEF711FF08B11298F0B998F80000E7
:10483000032801D11198E8BBBAF1000F39D10098D3
:10484000162100FB01F84FF42F71884501DD8846E1
:1048500003E03148804500DA804608F59660FEF7AF
:1048600094FE0A90C8F596601CE022E042E00F98A2
:10487000012807D040F21A408046224800780328D9
:1048800003D005E040F24650F6E70F98012817D014
:104890000C9808FB00F8C8F5E170FEF776FE0A9068
:1048A00008F5E170FEF771FE014609900A98FFF7DE
:1048B000C5F800E00FE01348007803280BD019E09A
:1048C0000C98404200FB08F0FEF75FFE0A900C983F
:1048D00000FB08F0E6E70F9801280BD11D9848B1BE
:1048E000FCF7D0F91D99401A41F27071884201D34A
:1048F00001201C90DFF80C8010E050E04DE000003B
:10490000C500002000000020000016439000002099
:10491000E00700200000404144FDFFFF98F8000040
:10492000FEF792FE48B1129838B9FCF7ABF91E9920
:10493000401A44F2506188420DD298F800000328D2
:104940000CD1119850B9FCF79DF91E99401A48F600
:10495000A041884202D34FF0010A02E0BAF1000FF1
:104960001DD0002717970A97BB46099700F0A8FAB1
:10497000B84600F0EFFB5020FEF7E2FD00F0E2FB4E
:104980005020FCF767F808F1010000F0FF08B8F1CB
:10499000030FEED31FB1179808B9259838B100203E
:1049A000834508DA0BF1280B834509DC09E04FF455
:1049B000AF60F5E72CE004DDABF1280B834500DAAE
:1049C00083461FB900F000FB00F016FBFCF75AF914
:1049D0002699401A64281DD3FCF754F92690FEF757
:1049E00021FF00900E4890F80080FDF765FC09ABB0
:1049F00093E80700CDE90510CDE903620948CDE948
:104A00000189089B026808483946007800F032F9AD
:104A1000FDF710FD1420FCF71DF8FFF748B9000062
:104A2000C4000020900000200000002070B50D4C54
:104A30000546002202212046FCF71FF90022012131
:104A40002046FCF71AF92846FCF704F80122114623
:104A50002046FCF712F92046BDE8704001220221F1
:104A6000FCF70BB9000C014038B50446FDF724FCF7
:104A700001250021102319A208460095FDF77AFDB3
:104A80000095002C24D018A2082310210020FDF747
:104A900071FD0095012C1DD018A208231C210020B7
:104AA000FDF768FD0095022C16D019A208232821D5
:104AB0000020FDF75FFDFEF7B5FE082318A23821A0
:104AC00000200095FDF756FDBDE83840FDF7B2BC6B
:104AD00017A2D9E71BA2E0E71FA2E7E74D61696EC5
:104AE000204D656E75000000205B315D20426173D2
:104AF0006963205461736B7300000000205B325DBA
:104B000020416476616E6365205461736B00000020
:104B1000205B335D2042542052656D6F7465000048
:104B20004B30204E455854204B31204F4B00000055
:104B30003E5B315D204261736963205461736B7326
:104B4000000000003E5B325D20416476616E63656B
:104B5000205461736B0000003E5B335D20425420A3
:104B600052656D6F74650000F8B50F460646FDF797
:104B7000A3FB0125022E009508D056B11DA21023DB
:104B800000210846FDF7F6FC002422E010231DA2B8
:104B9000F6E71EA2F3E72146304600F05FF800F08A
:104BA00049F80346BC4201D13E2200E020221AA16E
:104BB0001B48FDF779FF04EB8400122101EB400054
:104BC000C1B20823164A00200095FDF7D3FC641CEF
:104BD000E4B2304600F03CF8A042DCD8082311A231
:104BE000382100200095FDF7C5FCBDE8F840FDF731
:104BF00021BC0000416476616E6365205461736B73
:104C00007300000052656D6F746500004261736946
:104C100063205461736B73002563257300000000EB
:104C2000CC0000204B30204E455854204B312052B0
:104C3000554E0000072801D302A07047034951F8E0
:104C400020007047554E4B4E4F574E00A800002095
:104C5000022801D00320704701207047012803D0AB
:104C6000022804D008467047C91CC8B27047062005
:104C7000704700002DE9F84F0E46DDE90D7104255F
:104C8000DDF840B0DDF828A098469146032804D00E
:104C9000042804D0052804D004E0092502E00325F7
:104CA00000E00D46FFF7C6FF02460124002108235D
:104CB00008460094FDF75EFC002E5CD02FA231A1C7
:104CC0003248FDF7F1FE0823304A194600200094CF
:104CD000FDF750FC4846FBF7B7FC02460B462CA1FB
:104CE0002A48FDF7E1FE0823284A102100200094FD
:104CF000FDF740FC4046FBF7A7FC02460B4627A108
:104D00002248FDF7D1FE0823204A182100200094F4
:104D1000FDF730FC524624A11C480B9BFDF7C4FE56
:104D200008231A4A202100200094FDF723FC5B464B
:104D300021A116480F9AFDF7B7FE0823134A282130
:104D400000200094FDF716FC2B4600971DA10F488C
:104D50000C9AFDF7A9FE08230C4A3021002000948C
:104D6000FDF708FC08231BA2382100200094FDF762
:104D700001FCBDE8F88F1BA2A1E700004F4E2020E8
:104D80000000000052756E3A25730000CC00002030
:104D90005961773A25372E32660000005461723A25
:104DA00025372E32660000004C696E653A25346C5A
:104DB00064202530325800004C3A25346420523AA1
:104DC000253464004C61703A25752F257520543ABE
:104DD000257500004B302052554E204B31204D455B
:104DE0004E5500005341464500000000F8B500262E
:104DF0003546344603270020FEF7BCFC18B10128D5
:104E000003D0022818D09CB144E02820FFF70EFE02
:104E10004CB13046FFF71CFF6D1CB5FBF0F100FBF9
:104E20001150C5B236E0761CB6FBF7F007FB1066F2
:104E30003046FFF719FE31E05020FFF7F7FD3CB395
:104E400029463046FFF70AFF0546FDF735FA0124EB
:104E50000021102313A208460094FDF78BFB28467F
:104E6000FFF7E8FE02460823182100200094FDF712
:104E700081FB08230EA22C2100200094FDF77AFB71
:104E8000FDF7D8FA4FF44870FBF7E4FD2846F8BD6B
:104E90000124002529463046FFF766FE9620FBF7E1
:104EA000D9FDA8E75461736B204C6F636B65640098
:104EB00052656C65617365206B6579732E2E2E00CB
:104EC00010B500210846FEF7B9FD00F07DF8BDE8F9
:104ED000104000F091B80000204910B50020086093
:104EE00048608860C8601E4BC861C1E904308861B1
:104EF00040391C4C086048608860C8600C611A4AE0
:104F0000C861C1E905206031086048608860C860F8
:104F1000C861C1E904308861403908604860886030
:104F2000C8600C61C861C1E9052060310F4A0860A2
:104F300048608860C860C861C1E904208861203188
:104F40004FF08142086048608860C860C861C1E96C
:104F500004204FF07E50886110BD0000A0070020A3
:104F60009A99993E0000C040000008419A99993FE3
:104F700030B502460020EFF3108172B6084D094BA0
:104F80000446AA4202D158685C6004E0064DAA4279
:104F900001D198689C60002900D162B630BD000044
:104FA0004801002024000020D801002010B508602E
:104FB0000146044800F03CF802490020C861C8607E
:104FC00010BD0000E00700200349002008700146E2
:104FD0000248FCF74BBC000020000020900100209C
:104FE00003490120087000210248FCF7EFBB0000D4
:104FF0002000002090010020034900204870042177
:105000000248FCF733BC0000200000209001002083
:1050100003490120487004210248FCF7D7BB000077
:105020002000002090010020103080E80E00704722
:10503000016070470D4810B5B0F90800FBF7BBFAE6
:1050400000220B4BFBF7CDF900220A4BFBF7C9F905
:105050000022094BFBF737FAFBF7D7FAFBF7A2FA66
:105060000146BDE81040054800F030B8300000208F
:1050700000408F4000004E400050D44060070020A8
:105080000D4810B5B0F90A00FBF795FA00220B4B5A
:10509000FBF7A7F900220A4BFBF7A3F90022094B03
:1050A000FBF711FAFBF7B1FAFBF77CFA0146BDE812
:1050B0001040054800F00AB83000002000408F4042
:1050C00000004E400050D440800700202DE9F04100
:1050D00004460068FBF79AF8A060B0F17C5F04DA40
:1050E000B0F13F4F01D20020A060E26905460146C1
:1050F0001046FBF739F81149E061884202DA10499D
:10510000884200D9E1612846E168FBF77FF8A16990
:10511000FBF782F80646E1696069FBF77DF8074610
:1051200029462069FBF778F83946FBF71DF8314628
:10513000FBF71AF8E5606060BDE8F08100007A4492
:1051400000007AC4012202210148FBF796BD00004D
:10515000000C0140002202210148FBF78EBD000037
:10516000000C0140094810B50068FBF735FAFBF761
:1051700019FA0146064800F011F80649884202DC97
:105180000549884200D9084610BD00009000002063
:10519000E00700200000C8420000C8C22DE9F0412D
:1051A00004460068FBF732F8224E234DA06003E06E
:1051B0003146FBF72BF8A060A842F9DC1F4DA8424E
:1051C00004D93146FAF7D0FFA060F8E710F1814F1B
:1051D00005D2B0F17E5F02DA0020A060E061A06835
:1051E000E269054601461046FAF7BEFF1449E06140
:1051F000884202DC1349884200D9E1612846E1680F
:10520000FBF704F8A169FBF707F80646E169606956
:10521000FBF702F8074629462069FAF7FDFF3946F1
:10522000FAF7A2FF3146FAF79FFFE5606060BDE83C
:10523000F08100000000B44300003443000034C398
:1052400000009643000096C3134810B5007801286B
:1052500003D01248007801281CD1114C6078401C02
:10526000C0B26070022801D2206B04E000206070A0
:10527000FFF778FF206380F000410A48FFF7D8FE6F
:105280000948216BFFF7D4FEFFF7D4FE6063FFF7F8
:10529000F7FEA06310BD00002000002021000020C8
:1052A00030000020600700208007002070B5FAF76A
:1052B000ADFF0A4D0A4C02E02946FAF7A7FFA042CB
:1052C000FADC084CA04203D92946FAF74DFFF9E76A
:1052D00010F1FF4F01D380F0004070BD0000B443D7
:1052E00000003443000034C370B5FAF73DFF084DA9
:1052F000084C02E02946FAF789FFA042FADC064C86
:10530000A04203D92946FAF72FFFF9E770BD000044
:105310000000B44300003443000034C30000000028
:105320000000000001020304060708090000000055
:10533000010203040000000000000000002F000034
:1053400000000700070000147F147F1400242A7F48
:105350002A120062640813230036495522500000C7
:105360000503000000001C224100000041221C0037
:105370000014083E08140008083E0808000000A0B9
:1053800060000008080808080000606000000020B5
:1053900010080402003E5149453E0000427F400093
:1053A000004261514946002141454B310018141219
:1053B0007F10002745454539003C4A4949300001E6
:1053C0007109050300364949493600064949291E35
:1053D0000000363600000000563600000008142297
:1053E0004100001414141414000041221408000297
:1053F0000151090600324959513E007C1211127CBC
:10540000007F49494936003E41414122007F4141E8
:10541000221C007F49494941007F09090901003EDA
:105420004149497A007F0808087F0000417F410018
:10543000002040413F01007F08142241007F40408E
:105440004040007F020C027F007F0408107F003E76
:105450004141413E007F09090906003E4151215E5C
:10546000007F091929460046494949310001017F59
:105470000101003F4040403F001F2040201F003FEF
:105480004038403F006314081463000708700807A1
:1054900000615149454300007F41410000552A55B4
:1054A0002A55000041417F0000040201020400402F
:1054B0004040404000000102040000205454547851
:1054C000007F484444380038444444200038444471
:1054D000487F00385454541800087E09010200180F
:1054E000A4A4A47C007F080404780000447D40004C
:1054F000004080847D00007F102844000000417F30
:105500004000007C04180478007C0804047800380B
:105510004444443800FC242424180018242418FC93
:10552000007C0804040800485454542000043F44FC
:105530004020003C4040207C001C2040201C003CBF
:105540004030403C004428102844001CA0A0A07C0F
:10555000004464544C441414141414140000000047
:1055600000000000000000000000FC00000000003F
:1055700002000000000C020C02000000000000000D
:1055800090D0BCD0BC900003000300001824FE445F
:105590008C000302070201001824D8B04C800003DD
:1055A00000010201C038E438E000010202010202F9
:1055B000080600000000000000000000000000F8E5
:1055C0000402000000010204000204F800000004CC
:1055D000020100009060F8609000000001000000EF
:1055E0002020FC202000000001000000000000003E
:1055F00000000806000000002020202020000000FD
:105600000000000000000000000000020000000098
:105610000080601C0200040300000000F804040481
:10562000F8000102020201000008FC000000000274
:10563000030200001884442418000302020202003E
:1056400008042424D80001020202010040B088FCB2
:1056500080000000000302003C242424C400010256
:1056600002020100F824242CC00001020202010001
:105670000C04E41C0400000003000000D8242424CF
:10568000D80001020202010038444444F80000033B
:1056900002020100000010000000000002000000F3
:1056A00000002000000000000600000000205088DC
:1056B0000402000000000102909090909000000011
:1056C00000000000000204885020000201000000D9
:1056D0001804C4241800000002000000F804E49438
:1056E000F80001020202020000E09CF080000203C8
:1056F0000000030204FC2424D8000203020201007B
:10570000F80404040C0001020202010004FC040479
:10571000F80002030202010004FC24740C000203DE
:105720000202030004FC24740C00020302000000C7
:10573000F0080444CC4000010202010004FC2020D7
:10574000FC040203000003020404FC04040002023F
:1057500003020200000404FC040406040403000025
:1057600004FC24D00C0402030200030204FC040025
:105770000000020302020203FC3CC03CFC000300E8
:105780000300030004FC30C4FC0402030200030015
:10579000F8040404F80001020202010004FC2424BD
:1057A0001800020302000000F8848404F8000102DB
:1057B0000207050004FC24649800020302000302AF
:1057C000182424448C000302020201000C04FC048F
:1057D0000C0000020302000004FC0000FC040001B5
:1057E00002020100047C80E01C04000003000000B1
:1057F0001CE03CE01C00000300030000049C609CD3
:105800000400020300030200041CE01C0400000268
:10581000030200000C84641C040002030202030063
:105820000000FE020200000007040400000E30C069
:105830000000000000010200000202FE000000045F
:105840000407000000040204000000000000000043
:105850000000000000000808080808080000020016
:1058600000000000000000000040A0A0C0000001F7
:105870000202030204FC2020C00000030202010017
:1058800000C02020600000010202020000C02024AD
:10589000FC0000010202030200C0A0A0C000000141
:1058A000020202000020F824240400020302020085
:1058B0000040A0A0602000070A0A0A0404FC20207F
:1058C000C0000203020003020020E4000000000206
:1058D00003020000000020E40000080808070000A0
:1058E00004FC80E020200203020003020404FC0008
:1058F0000000020203020200E020E020C0000300DA
:105900000300030020E02020C00002030200030285
:1059100000C02020C00000010202010020E0202081
:10592000C000080F0A02010000C02020E0000001B2
:10593000020A0F0820E040202000020302000000BD
:105940000060A0A020000002020203000020F82056
:10595000000000000102020020E00020E000000141
:105960000202030220E0208060200000030100000A
:105970006080E08060000003000300002060806021
:10598000200002030003020020E0208060200808BD
:10599000070100000020A0602000000203020200B6
:1059A000000020DE0200000000070400000000FFED
:1059B00000000000000F00000002DE2000000004D4
:1059C00007000000020102040402000000000000C1
:1059D00000000000000000000000000000000000C7
:1059E000000000F80000000000000033300000005C
:1059F00000100C06100C0600000000000000000063
:105A000040C07840C0784000043F04043F040400D4
:105A1000007088FC08300000001820FF211E0000E4
:105A2000F008F000E018000000211C031E211E00F9
:105A300000F00888700000001E212324192721107F
:105A400010160E0000000000000000000000000022
:105A5000000000E0180402000000000718204000C9
:105A600000020418E00000000040201807000000B9
:105A7000404080F0804040000202010F010202001D
:105A8000000000F0000000000101011F0101010001
:105A9000000000000000000080B070000000000066
:105AA00000000000000000000001010101010101EF
:105AB0000000000000000000003030000000000086
:105AC000000000008060180400601806010000005B
:105AD00000E010080810E000000F102020100F0058
