:020000040800F2
:10000000380C002001010008832200088B1E000824
:100010008122000825090008712A0008000000005C
:10002000000000000000000000000000B5250008EE
:100030002709000800000000B32500080D2600086D
:100040001B0100081B0100081B0100081B01000820
:100050001B0100081B0100081B01000831090008F2
:10006000370900081B0100081B0100081B010008DC
:100070001B0100081B0100081B0100081B010008F0
:100080001B0100081B0100081B0100081B010008E0
:100090001B0100081B0100081B0100083D090008A6
:1000A0001B010008692600081B0100081B0100084D
:1000B00075260008812600088D2600081B0100080F
:1000C0001B0100081B0100081B0100081B010008A0
:1000D0001B0100084D2A0008592A0008652A00085B
:1000E000290900081B0100081B010008DFF80CD0DB
:1000F00000F006FC004800475D430008380C002073
:100100000648804706480047FEE7FEE7FEE7FEE7B1
:10011000FEE7FEE7FEE7FEE7FEE7FEE767260008EC
:10012000ED000008202A04DB203A21FA02F0002129
:10013000704721FA02F3D040C2F1200291400843F7
:1001400019467047D2B201E000F8012B491EFBD2DC
:1001500070470022F6E710B513460A4604461946D2
:10016000FFF7F0FF204610BDF0B480EA0102D40F83
:100170004200B2EB410F02D20246084611464A0045
:1001800042D0C30DDDB2C1F3C752AD1A202D35DA0E
:10019000C1F3160141F4000204B15242C5F1200638
:1001A00002FA06F12A411044B3EBD05F23D0C4B168
:1001B000012DA0EBC35009DCF0BC4FF0004202EA75
:1001C000C352DBB200F5000000F0DEBA400000F1DF
:1001D000807000EBC350A0F1807040EAD1704900FC
:1001E00009E0490841EAC071A0EBC35000F50000E6
:1001F000400800EBC350F0BC00F0BDBA61420122E0
:1002000002EB4101001BF6E7F0BC704781F00041B2
:10021000AAE780F00040A7E780EA010210B502F0EB
:100220000043400022D04A001FD0010E01EB1261B2
:10023000C0F35600C2F3560240F4000042F400023C
:10024000A0FB022000047F39140400D0401C50EAB7
:10025000124001D44000491EC2B20C0604EBD0107B
:10026000401C4008802A02D003E0002010BD20F08E
:100270000100002900DA0020184310BD420005D01B
:10028000C0F3C7525242914201DC0020704700EB9C
:10029000C15070472DE9FE4F804681EA0300C00F30
:1002A0000C46009021F0004123F00045B8EB02001D
:1002B000A94105D24046214690461C460B460246BF
:1002C00023F00040104347D0270DC7F30A00C3F3C3
:1002D0000A510290401A019040286BDAC3F31300D0
:1002E00040F4801B0098924620B10023D2EB030A11
:1002F00063EB0B0B01985946C0F14002504600F0E9
:1003000019FA06460D4650465946019A00F021FA60
:1003100010EB08006141002487EA115284EAE77378
:100320001A4340D0009A62B3019A012A4FEA075259
:1003300015DC001B61EB02014FF0004202EA07529C
:10034000CDE90042001C41F5801132462B4600F0F9
:1003500058FA03B0BDE8F08F40462146F9E7001B8C
:1003600061EB0201001C41F5801300185B4120186D
:10037000A2F5001747EB030140EAD570B6196D41AD
:1003800011E06D084FEA360645EAC0754FEA07529C
:10039000001B61EB0201001C41F5801149084FEA86
:1003A00030000019514132462B4603B0BDE8F04FF2
:1003B00000F018BA0098012240000023D0EB02029E
:1003C00063EBE073009821464FEAE074B8EB00005D
:1003D00061EB0401E9E783F000435BE781F0004152
:1003E00058E72DE9FE4F81EA030404F0004421F0B0
:1003F000004100944FF0000B23F0004350EA010449
:100400005ED052EA03045BD0C3F30A54C1F30A5529
:100410002C44A4F2F3340194A0FB0254C1F3130161
:1004200041F48011C3F3130343F4801301FB02442E
:1004300000FB034E840A970A44EA815447EA835733
:10044000A4FB076802958D0A05FB07854FEA932CEC
:1004500004FB0C542705029D4FEA065847EA16375D
:10046000B5EB08056EEB070C870E920E47EA811775
:1004700042EA8312A7FB0201B6EB0B0164EB000416
:100480002B0D43EA0C335E1844EB1C50DA46514600
:10049000E7FB0201C5F313044FEA0B3343EA14539D
:1004A0004FEA0432019C43EA0603A4F10C040294CF
:1004B000009CCDE900B400F0A4F903B0BDE8F08FD2
:1004C00000200146F9E72DE9F04D81EA030404F02C
:1004D000004B21F0004514464FF0000A23F0004184
:1004E00050EA050220D054EA01021DD0C5F30A5794
:1004F0000246C5F31303C1F31300C1F30A5640F4D7
:10050000801543F48013A7EB0608101BD64608F2AB
:10051000FD3873EB050002D308F1010801E09218E1
:100520005B41B8F1000F03DA00200146BDE8F08D11
:1005300000204FF48011064684460EE0171B73EB33
:10054000050705D3121B63EB050306434CEA010CB8
:1005500049084FEA300092185B4150EA0107EDD19B
:1005600052EA030012D082EA040083EA050108433C
:1005700005D0101BAB4106D20122002306E0002269
:100580004FF0004302E06FF0010253101AEB060037
:100590004CEB085110EB0A0041EB0B01BDE8F04DAC
:1005A00000F020B9C10F80EAE0700844CA07962322
:1005B000002100F0E9B80EB5C10F80EAE0700844F0
:1005C000CA07002140F233438DE80E000A460B466D
:1005D00000F017F903B000BD00F0004220F0004029
:1005E000C10DC0F3160040F400007F2901DA00209D
:1005F0007047962903DCC1F19601C84001E09639A5
:100600008840002AF4D04042704770B5C1F30A52C6
:1006100001F000450024C1F3130140F2FF3341F41F
:1006200080119A4201DA002070BD40F233439A42B1
:10063000A2F2334203DC5242FFF774FD00E0904027
:100640002C43F1D0404270BD00F0004230F0004039
:100650000AD0C10D01F56071C0F3160042EA0151E4
:10066000C20840071143704700200146704701F05F
:10067000004330B421F0004150EA010206D00A0DD7
:10068000A2F56072C1F31301002A02DC30BC002025
:100690007047440F44EAC104C100E01830BC00EBCD
:1006A000C25000F068B830B50B4601460020202249
:1006B000012409E021FA02F59D4205D303FA02F56F
:1006C000491B04FA02F52844151EA2F10102F1DCCF
:1006D00030BD2DE9F05F0546002092469B468846D6
:1006E0000646814640241BE02846414647462246AE
:1006F000FFF718FD53465A46C01A914110D31146D0
:100700001846224600F016F82D1A67EB01084F46EE
:1007100022460120002100F00DF817EB00094E41A0
:10072000201EA4F10104DFDC484631462A46434638
:10073000BDE8F09F202A04DB203A00FA02F10020F5
:1007400070479140C2F1200320FA03F3194390400F
:100750007047202A06DBCB17203A41FA02F043EA21
:10076000E07306E041FA02F3D040C2F1200291406A
:100770000843194670470029A8BF7047401C49002C
:1007800008BF20F00100704710B4B0FA80FC00FAF6
:100790000CF050EA010404BF10BC704749B1CCF121
:1007A000200421FA04F411FA0CF118BF01212143AD
:1007B0000843A3EB0C01CB1D4FEA00614FEA102068
:1007C00042BF002010BC704700EBC350104400290A
:1007D000A4BF10BC7047401C490008BF20F00100B6
:1007E00010BC704710B5141E73F1000408DA401CE9
:1007F00041F1000192185B411A4301D120F0010040
:1008000010BD2DE9F04D92469B4611B1B1FA81F22F
:1008100002E0B0FA80F220329046FFF78BFF0446E8
:100820000F4640EA0A0041EA0B0153465A46084384
:1008300013D0114653EA010019D0C8F140025046C6
:10084000FFF770FC05460E46504659464246FFF7F4
:1008500071FF084305D0012004E020463946BDE879
:10086000F08D0020054346EAE0762C4337430A9892
:100870006305E40AA0EB08000022FD0A44EA47549D
:100880000A3002D500200146E9E701051019694147
:10089000DDE9084500196941BDE8F04DA2E7C1F363
:1008A0000A52C1F3130140F2FF3341F480119A421E
:1008B00002DA00200146704740F233439A42A2F226
:1008C000334202DC5242FFF72DBCFFF733BF00007A
:1008D00030B5041E71F1000404DB4FF000444042C7
:1008E00064EB0101141E73F1000405DB1C464FF09C
:1008F0000043524263EB0403994208BF904230BD6B
:10090000064C074D06E0E06840F0010394E807005C
:1009100098471034AC42F6D3FFF7ECFB9C6E00080E
:10092000BC6E0008FEE770474FF4006000F0A6B808
:10093000022000F0A3B8042000F0A0B84FF48070AB
:1009400000F09CB808B572B60025074F074C4FF46D
:1009500000563146384600F088F900950098401C52
:100960000090A042FAD3F4E70010014020A1070054
:1009700010B590F821100022022905D004218163CE
:1009800080F82020012010BD01680B6823F00E03C1
:100990000B6001680B6823F001030B6090F8403096
:1009A000012404FA03F1C36B596080F8214080F8F8
:1009B0002020104610BD000010B590F82110002432
:1009C000022903D00421816301243DE001680A6803
:1009D00022F00E020A6001680A6822F001020A6031
:1009E0001A4A0168914201D1012121E0174A1432CB
:1009F000914201D110211BE0144A2832914201D1C9
:100A0000891515E0114A3C32914201D189140FE059
:100A10000E4A5032914202D14FF4803108E00B4A25
:100A20006432914202D14FF4801101E04FF08071A5
:100A3000064A083A5160012180F82110002180F80F
:100A40002010416B01B18847204610BD08000240CC
:100A5000806B704770B5044600F014F90546601CC1
:100A600002D004480078044400F00CF9401BA04276
:100A7000FAD370BD0400002002F0DABF044910B5BB
:100A80000A68024202D00860FFF7F6FF10BD0000BE
:100A9000140401402DE9F84FDFF8A491002409F176
:100AA000040A0AF1040B23464FF00F080BF1040E61
:100AB000BEE00127A7403A40BA4272D1DFF884C1B4
:100AC0004D68A5EB0C0665452BD00DDC032D34D00D
:100AD00005DC35B3012D19D0022D2FD11BE0112DCE
:100AE00016D0122D2AD119E0B6F5881F19D006DCD0
:100AF000B6F5803F15D0B6F5801F1FD111E0B6F5D1
:100B0000001F0ED0B6F5041F18D10AE0CB6815E01F
:100B1000CB681B1D12E0CB6808330FE0CB680C33A9
:100B20000CE08B682BB1012B4FF0080303D0476119
:100B300004E0042302E0076100E00023FF2A01D85B
:100B4000064601E000F104064FEA840501D9A5F14B
:100B50002005376808FA05FC27EA0C0703FA05F5B3
:100B600047EA050737604D68ED0060D5364DAE6940
:100B700046F00106AE61AD6924F0030605F00105FB
:100B80000095324D7719BE68A5072D0F08FA05FCB0
:100B900026EA0C06DFF8B8C0604503D14FF0000C20
:100BA00017E044E0DFF8ACC0604502D14FF0010C23
:100BB0000FE0DFF8A4C0604502D14FF0020C08E05E
:100BC000DFF898C0604502D14FF0030C01E04FF010
:100BD000040C0CFA05FC4CEA060CC7F808C04D687A
:100BE000D9F80060ED034D4601D5164300E0964369
:100BF0002E604D68DAF80060AD03554601D5164306
:100C000000E096432E604D68DBF80060ED025D4623
:100C100001D5164300E096432E604D68DEF8006073
:100C2000AD02754601D5164300E096432E60641C64
:100C30000A6832FA04F57FF43CAFBDE8F88F000093
:100C400000040140000011100010024000000140AB
:100C500000080140000C0140001001400014014058
:100C60008068084000D001207047C26821EA020372
:100C70000A4043EA0241016170470AB101617047CD
:100C80000904FBE701488068704700000400002069
:100C90000248816802781144816070470400002096
:100CA000074810B5016841F010010160032000F011
:100CB00079F8002000F006F800F024F8002010BDBC
:100CC0000020024070B50D4D04464FF47A7128782B
:100CD000B1FBF0F00A490968B1FBF0F000F0F2FA5C
:100CE00048B9102C07D200222146501E00F03AF8D5
:100CF00000206C6070BD012070BD00000400002069
:100D0000100000200E4808B5816941F001018161A1
:100D1000816901F001010091C16941F08051C16117
:100D2000C06900F080500090052000F03BF80549B4
:100D3000486820F0E06040F00070486008BD0000A6
:100D40000010024000000140002809DB00F01F02F3
:100D5000012191404009800000F1E020C0F800111D
:100D600070470000F0B40E4B1B68C3F30223C3F1BD
:100D70000704042C00D904241D1D072D01D20023D3
:100D800000E0DB1E012606FA04F56D1E0D409D40B5
:100D90009E40761E164045EA0601F0BC01F07EBE7C
:100DA0000CED00E0064A00F0070110684FF6FF0363
:100DB000184040EA012003490843106070470000D2
:100DC0000CED00E00000FA052DE9F0470D460400A7
:100DD00067D0DFF81881D8F8000000F00700A842BB
:100DE0000CD2D8F8001021F007012943C8F80010F0
:100DF000D8F8000000F00700A84252D120683C4E0D
:100E0000810712D5400703D5706840F4E060706038
:100E10002078000703D5706840F4605070607068F7
:100E2000A16820F0F000084370602078C00727D048
:100E30006068012810D03168022810D08907002985
:100E40002FDA716821F0030101437160FFF71AFF87
:100E5000074641F288390CE031688903EFE78901E0
:100E6000EDE7FFF70FFFC11B494502D90320BDE89D
:100E7000F0877068616800F00C00B0EB810FF0D172
:100E8000D8F80010404601F00701A9420BD90168CB
:100E900021F0070129430160006800F00700A84223
:100EA00001D00120E3E72078400705D57068E168AC
:100EB00020F4E060084370602078000706D5706871
:100EC000216920F4605040EAC100706000F038F8F9
:100ED0007168084AC1F30311515CC84006490860B3
:100EE00006480068FFF7EEFE0020C0E70020024041
:100EF00000100240E84F0008100000200800002009
:100F00000448054900684968044AC1F30221515C5C
:100F1000C84070471000002000100240F84F000841
:100F20000448054900684968044AC1F3C221515C7C
:100F3000C84070471000002000100240F84F000821
:100F400012A085B00FC88DE80F0014A0144B0068E4
:100F500004905968134801F00C02042A10D0082AA2
:100F60000ED1C1F38342C9031DF802000AD55968A6
:100F700004AAC1F34041515C0A4A5043B0FBF1F06E
:100F800005B0704708494843FAE70000020304052A
:100F9000060708090A0B0C0D0E0F101001020000C5
:100FA0000010024000127A0000093D002DE9F84FC0
:100FB00004006FD02078BE4DC00747D06868C0F3EA
:100FC0008100012807D06868C0F38100022809D198
:100FD0006868C00306D52868800337D56068002894
:100FE000E7D033E06068B0F5803F0BD010B1B0F5CA
:100FF000A02F11D0286820F480302860286820F4C1
:10100000802002E0286840F480302860606888B161
:10101000FFF738FE064609E0286840F48020286083
:10102000F0E7FFF72FFE801B642873D82868800341
:10103000F7D50BE0FFF726FE064604E0FFF722FE99
:10104000801B6428F1D828688003F7D42078DFF863
:10105000648280074FF0010A4FF0000939D56868B3
:1010600010F00C0F07D06868C0F38100022809D186
:101070006868C00306D42868800714D52069012851
:1010800008D110E02069B0B1C8F800A0FFF7FAFD60
:10109000064605E007E1FFF7F5FD801B0228C4D8EE
:1010A00028688007F7D52868616920F0F80040EAD1
:1010B000C10028600DE0C8F80090FFF7E3FD064688
:1010C00004E0FFF7DFFD801B022823D82868800793
:1010D000F7D4207800072CD57748A169D9B1C0F89A
:1010E00000A0FFF7CFFD064604E0FFF7CBFD801B15
:1010F00002280FD8686A8007F7D570484FF4FA5174
:101100000068B0FBF1F0009000BF0098411E009114
:10111000FAD20EE07CE0C0F80090FFF7B3FD06467F
:1011200004E0FFF7AFFD801B022871D8686A8007D2
:10113000F7D4207840075BD5E8690027C00008D4C1
:10114000E86940F08050E861E869012700F08050CC
:1011500000905B480168C90511D40168834641F4D9
:1011600080710160FFF78EFD064604E0FFF78AFDFF
:10117000801B64284CD8DBF80000C005F6D5E06879
:1011800001280AD008B1052813D0286A20F00100F0
:101190002862286A20F0040002E0286A40F001007A
:1011A0002862E06841F2883B88B1FFF76BFD064694
:1011B00009E0286A40F004002862EEE7FFF762FDCC
:1011C000811B59455BD8286A8007F7D50BE0FFF7EC
:1011D00059FD064604E0FFF755FD811B59454ED8E1
:1011E000286A8007F7D41FB1E86920F08050E861D1
:1011F000E069A8B36968C1F38101022946D00228D9
:10120000484606D0C8F86000FFF73CFD044639E0C8
:1012100035E04746C8F86000FFF734FD064604E0B5
:10122000FFF730FD801B022829D828688001F7D4F9
:10123000206AB0F5803F05D16868A16820F40030CD
:1012400008436860D4E908010843696821F474110F
:1012500008436860C7F860A0FFF714FD044605E086
:1012600023E0FFF70FFD001B022808D82868800143
:10127000F7D51AE0FFF706FD001B022802D903206C
:10128000BDE8F88F28688001F4D40EE00128F7D07B
:101290006868226A00F48031914204D1616A00F4E6
:1012A0007010884201D00120EAE70020E8E7000042
:1012B0000010024000004242800442421000002020
:1012C0000070004010B5401EB0F1807F01D30120B6
:1012D00010BD4FF0E02460610F21601701F0DEFBCC
:1012E0000020A06107202061002010BD70477047DA
:1012F00070B590F83C20012A26D0012580F83C509A
:10130000022280F83D2002685368946823F070063A
:101310000B68334353600D4B02689A4208D0B2F118
:10132000804F05D00A4B9A4202D00A4B9A4204D110
:10133000496824F080031943916080F83D500021F2
:1013400080F83C10084670BD022070BD002C0140A2
:10135000000400400008004010B5040003D094F8D9
:101360003D0010B107E0012010BD002084F83C00D2
:10137000204600F01FF8022084F83D00211D20685F
:1013800001F08AF9012084F8460084F83E0084F8D0
:101390003F0084F8400084F8410084F8420084F85B
:1013A000430084F8440084F8450084F83D000020A0
:1013B00010BD000008B500680B49884212D10B48E7
:1013C000816941F4006181618069002200F400605C
:1013D000009001211920FFF7C5FCBDE80840192045
:1013E000FFF7B2BC08BD0000002C01400010024015
:1013F00070B5044690F83C00012817D0012584F808
:101400003C50022084F83D002068826822F0770278
:1014100022F47F4282600868502830D00DDC2028FA
:101420004DD005DC98B310283BD148E0022070BDB8
:10143000302844D0402834D139E0602828D07028A2
:1014400006D0B0F5805F2CD0B0F5005F29D10AE05E
:10145000CB68D1E90121206801F061F92068816839
:1014600041F0770109E0CB68D1E90121206801F062
:1014700056F92068816841F48041816011E0CA68B2
:101480004968206801F006FA5021206807E016E05C
:10149000CA684968206801F00EFA6021206801F0EE
:1014A00048F984F83D50002084F83C0070BDCA68BB
:1014B0004968206801F0EEF940212068EFE72268D2
:1014C00001461046EBE7704770B5044600680169B5
:1014D0004FF00005C943890715D4C168C94389077E
:1014E00011D4E91E016101202077206880698007FE
:1014F000204602D0FFF7E7FF04E000F0BFF82046E7
:1015000000F062F9257720680169C943490717D4BB
:10151000C168C943490713D46FF004010161022077
:1015200020772068806910F4407F204602D0FFF7C2
:10153000CAFF04E000F0A2F8204600F045F9257744
:1015400020680169C943090716D4C168C94309075E
:1015500012D46FF008010161042020772068C0696F
:101560008007204602D0FFF7AEFF04E000F086F8C7
:10157000204600F029F9257720680169C943C9068A
:1015800017D4C168C943C90613D46FF010010161B3
:10159000082020772068C06910F4407F204602D0E0
:1015A000FFF791FF04E000F069F8204600F00CF925
:1015B000257720680169C943C90708D1C168C943B3
:1015C000C90704D1891E0161204600F087F920680F
:1015D0000169C943090609D4C168C943090605D48C
:1015E0006FF0800101612046FFF780FE20680169ED
:1015F000C943490609D4C168C943490605D46FF0F7
:1016000040010161204600F013FA20680169C943D6
:1016100089060BD4C168C943890607D46FF020013D
:1016200001612046BDE87040FFF761BE70BD00005B
:1016300000B585B0002100910191029103910068ED
:101640000B49884211D10B48816941F00401816145
:101650008069694600F004000490C02000900220D8
:10166000019003900448FFF715FA05B000BD000093
:10167000000400400010024000080140704770B5AF
:10168000044690F83C000D4601280AD0012084F859
:101690003C0042B1042A18D0082A2AD00C2A4DD185
:1016A00039E0022070BD206801F04CF820688169A3
:1016B00041F0080181612068816921F004018161A4
:1016C000206881692A69114311E0206801F066F8F9
:1016D0002068816941F4006181612068816921F499
:1016E00080618161206881692A6941EA0221816102
:1016F00024E0206801F080F82068C16941F0080109
:10170000C1612068C16921F00401C1612068C1691B
:101710002A69114311E0206801F09AF82068C16934
:1017200041F40061C1612068C16921F48061C16137
:101730002068C1692A6941EA0221C161002084F858
:101740003C0070BD10B5040003D094F83D0010B10A
:1017500007E0012010BD002084F83C00204600F086
:101760001FF8022084F83D00211D206800F094FF3E
:10177000012084F8460084F83E0084F83F0084F895
:10178000400084F8410084F8420084F8430084F863
:10179000440084F8450084F83D00002010BD00009E
:1017A00008B500680649884208D10648C16941F079
:1017B0000201C161C06900F00200009008BD000094
:1017C00000040040001002407047000010B50446BD
:1017D00049B104290AD008290BD094F84100012806
:1017E0000AD0012010BD94F83E00F8E794F83F00BD
:1017F000F5E794F84000F2E7022041B3042929D02C
:1018000008292AD084F841000122206800F07AFFDC
:1018100013492068884203D1426C42F4004242647A
:101820002068884208D0B0F1804F05D00D49884229
:1018300002D00D49884204D1816801F007010629D0
:1018400003D0016841F001010160002010BD84F85F
:101850003E00D9E784F83F00D6E784F84000D3E79C
:10186000002C0140000400400008004030B5044650
:101870000D460068002200F045FF174A41F21111A1
:1018800020688B10904209D1026A0A4206D1026A8E
:101890001A4203D1426C22F4004242642068026A78
:1018A0000A4206D1016A194203D1016821F00101FF
:1018B000016001203DB1042D08D0082D09D084F825
:1018C0004100002030BD84F83E00FAE784F83F0074
:1018D000F7E784F84000F4E7002C01402DE9F041DF
:1018E0004A4988427DD14A4803F0E0F9494C2081B9
:1018F000494803F0DBF9404201B26181B4F90820A4
:10190000E0684FF482661044E06090FBF6F02269D4
:1019100055182561FEF74FFE404FDFF804813A4627
:101920004346FEF75EFDFEF7A2FE606195FBF6F012
:10193000FEF741FE3A464346FEF753FDFEF797FE9B
:10194000384FA061384D3878384E022801D003282E
:1019500018D12878012815D13078012812D102F049
:10196000CBFC206AFEF738FEE063A06AFEF734FE87
:10197000284920644031081F02F082F9D4E90F01A0
:1019800002F022FC387804281BD1E07901283BD1F1
:101990002878012838D13078012835D103F0F2FABF
:1019A000606BFEF719FEE063A06BFEF715FE1949A8
:1019B00020644031081F02F063F9D4E90F0102F0FE
:1019C00003FC387801281FD1E07801281CD1287841
:1019D000012819D13078012816D102F041FA606B44
:1019E00000E011E0FEF7F8FDE063A06BFEF7F4FD08
:1019F000084920644031081F02F042F9D4E90F0180
:101A0000BDE8F04102F0E0BBBDE8F0810801002034
:101A10005001002024000020E0010020624A24D16F
:101A2000CB282E40000000201400002015000020CC
:101A3000704770B504460068C16821F49071C160B8
:101A40002068416921F001014161206841694FF03E
:101A5000000549060FD5416921F040014161606BE5
:101A600048B14563606BFEF783FF20B1606BFEF702
:101A7000EFFF202805D0E585202084F83A000020DB
:101A800070BD1020E063032070BD000038B513491D
:101A9000884203D1BDE8384001F0BCBC104CA042E4
:101AA0001AD110490A68521C0A60C06B0E490860BE
:101AB0002046FFF7BEFF20680021026840680090C2
:101AC000E16301220949204600F090F908490870B5
:101AD00008480168491C016038BD00002802002048
:101AE000A8020020880000209000002001000020B3
:101AF0008C0000209400002070B502680446106835
:101B0000D168536910F00F0F52D003F0010501F4B2
:101B100090762E435FD0C20705D0CA0503D5E26B8D
:101B200042F00102E263420705D5DA0703D0E26B17
:101B300042F00202E263820705D5DA0703D0E26BC6
:101B400042F00402E263020707D501F020022A43B3
:101B500003D0E26B42F00802E263E26B002A33D06A
:101B6000800604D5880602D5204600F0CCFE206809
:101B70004069E16BC0F38010090700D428B3204608
:101B800000F0B3FE2068416949061AD5416921F089
:101B900040014161606BA0B12D494163606BFEF76C
:101BA0000BFF002810D0606B416BBDE87040084708
:101BB000830610D58B060ED52046BDE8704000F098
:101BC000A2BE2046FFF762FF70BD2046FFF75EFF12
:101BD0000020E06370BD03062BD50B0629D594F8D1
:101BE00039002128F6D1A068B0F5805F01D12069C5
:101BF000B0B1206A411C2162216800784860E08C05
:101C0000401E0004000CE084E4D12068C16821F08B
:101C10008001C1602068C16841F04001C16070BDB1
:101C2000206A0088C0F308005060206A801C20628F
:101C3000E5E74006F3D54806F1D5D168204621F006
:101C40004001D160202184F8391000F01DF970BDE9
:101C5000DB28000870B5040004D094F83900002592
:101C600010B106E0012070BD84F83850204600F025
:101C700023F8242084F839002068C16821F4005139
:101C8000C160204600F086FE2068016921F4904181
:101C900001612068416921F02A0141612068C16821
:101CA00041F40051C160E563202084F8390084F8D4
:101CB0003A00002070BD0000F0B585B0002400940B
:101CC00001940294039444490068424F0222032382
:101CD000424D0E15B84225D1886940F48040886194
:101CE000886900F480400490886940F004008861AD
:101CF0008869039300F0040004904815CDE90002C0
:101D000069462846FEF7C6FECDE9006469462846C6
:101D10000294FEF7BFFE002202212520FFF722F8E1
:101D2000252028E02E4FB84229D1C86940F4003060
:101D3000C861C86900F400300490886940F004006C
:101D400088618869694600F0040004900420CDE9A8
:101D5000000203932846FEF79DFE0820CDE900040B
:101D6000694628460294FEF795FE002201212620AE
:101D7000FEF7F8FF2620FEF7E7FF05B0F0BD194D8E
:101D8000A842FAD1C86940F48020C861C86900F44B
:101D900080200490886940F0080088618869124DAD
:101DA00000F00800CDE90330CDE90062694628461D
:101DB000FEF770FEE914CDE9001401200290694697
:101DC0002846FEF767FE002201212720FEF7CAFF02
:101DD0002720D0E7003801400010024000080140F1
:101DE0000044004000480040000C014090F83A30A8
:101DF000202B22D1F9B1F2B190F83830012B1CD050
:101E000081628285C2850021C163222280F83A2046
:101E100080F838100168CA6842F48072CA600168AC
:101E20004A6942F001024A610068C16841F020013C
:101E3000C1600020704701207047022070470000F9
:101E40000C4910B5884205D10B480078BDE8104018
:101E500001F0D8BA094988420AD10948007801F04E
:101E60003FFE012206490548FFF7C0FF05490870FB
:101E700010BD000028020020CC000020A802002095
:101E8000010000208C0000207047FEE770B50122A1
:101E90000E4D540221462846FEF7EFFE012216029F
:101EA00031462846FEF7E9FE00F048F800222146B8
:101EB0002846FEF7E2FE00F041F8002231462846AF
:101EC000FEF7DBFEBDE8704000F038B8000C0140C2
:101ED00070B50B4D4FF40074002221462846FEF7E2
:101EE000CCFE012211022846FEF7C7FE00F026F8BC
:101EF00021462846BDE870400122FEF7BEBE000024
:101F0000000C014070B50C4C012251022046FEF736
:101F1000B4FE00F013F80122150229462046FEF710
:101F2000ACFE00F00BF8002229462046FEF7A5FE85
:101F3000BDE8704000F002B8000C01400320401ED4
:101F4000C0B2FCD2704700002DE9F04786B00024F3
:101F50006F480094019402940394816941F0100148
:101F60008161816901F010010491816941F02001D2
:101F70008161816901F020010491816941F00401CE
:101F80008161816901F004010491816941F00801D6
:101F90008161816901F008010491816941F00101C9
:101FA000816180695B4900F001000490486820F07D
:101FB000E06040F000704860DFF85C914D14012251
:101FC00029464846FEF759FEDFF8508100223921A4
:101FD0004046FEF752FEDFF848A101221146504666
:101FE000FEF74BFE00224FF440715046FEF745FECF
:101FF000012202215046FEF740FE009502260125EF
:102000000396CDE9015469464846FEF743FDEF03C8
:10201000009769464846CDE90145FEF73BFD39206A
:10202000CDE90005CDE9024669464046FEF732FD9E
:1020300040F6061000903B48CDE901056946404650
:10204000FEF728FDCDE90074694640460294FEF78C
:1020500021FD20208DE8310069465046FEF71AFD2B
:1020600003960095CDE9015469465046FEF712FDEE
:10207000CDE90065CDE9024669465046FEF70AFD06
:10208000A8038DE8310069464846FEF703FD4FF28C
:102090005800CDE90004694650460294FEF7FAFC68
:1020A00028021125CDE900050320CDE9024069464B
:1020B0005046FEF7EFFC3002CDE90005CDE90246BF
:1020C00069465046FEF7E6FC002203210720FEF792
:1020D00049FE0720FEF738FE002203210820FEF704
:1020E00041FE0820FEF730FE002203211720FEF7F4
:1020F00039FE1720FEF728FE002203212820FEF7D4
:1021000031FE2820FEF720FE06B0BDE8F087000073
:102110000010024000000140001001400008014092
:10212000000C01400000311010B586B000241748A3
:10213000009401940294039404941349059401605B
:1021400041F61F41C0E90114C721C0E903144461ED
:102150008461FFF701F908B1FEF7F4FB4FF48050FA
:10216000009069460948FFF743F908B1FEF7EAFB1A
:10217000049404A905480594FFF7BAF8002801D093
:10218000FEF7E0FB06B010BD002C01400801002066
:1021900010B58AB0002407941C2168460894FDF706
:1021A000D8FF1A481849C0E9001441F61F41C0E998
:1021B0000241802104618161FFF7C4FA08B1FEF792
:1021C000C1FB079407A911480894FFF791F808B1DB
:1021D000FEF7B8FB6020CDE90004029400226946B6
:1021E0000A480494FFF74BFA08B1FEF7ABFB042250
:1021F00069460648FFF743FA08B1FEF7A3FB034818
:10220000FFF716FA0AB010BD000400409801002044
:102210000C4810B50A4901604FF416514160002185
:1022200081600C22C160C0E904128161C161FFF7C5
:1022300011FD002803D0BDE81040FEF783BB10BDA0
:1022400000380140280200200C4810B50A490160FE
:102250004FF416514160002181600C22C160C0E939
:1022600004128161C161FFF7F5FC002803D0BDE8CD
:102270001040FEF767BB10BD00480040A8020020D8
:10228000FEE7FEE730B40021084B0A46002003EBCE
:10229000C004401CC0B262548028F8D3491CC9B2A3
:1022A0000829F3D330BC00F0ABB80000E8020020EE
:1022B00028B1012806D10021A72000F05FB9002134
:1022C000A620FAE7704710B558B1012810D10021B7
:1022D000C02000F053F90021A020BDE8104000F01C
:1022E0004DB90021C82000F049F90021A120F4E7F0
:1022F00010BD000030B5CC0801F0070301259D405A
:10230000EBB2064D05EBC005C808285C0AB11843BE
:1023100002E063EA0000C043285530BDE802002017
:1023200010B5C820FEF796FB0021AE2000F026F97C
:102330000021084600F022F90021102000F01EF9CB
:102340000021402000F01AF90021812000F016F948
:102350000021CF2000F012F90021A12000F00EF999
:102360000021C82000F00AF90021A62000F006F99B
:102370000021A82000F002F900213F2000F0FEF823
:102380000021D32000F0FAF80021084600F0F6F80A
:102390000021D52000F0F2F80021802000F0EEF8B6
:1023A0000021D92000F0EAF80021F12000F0E6F841
:1023B0000021DA2000F0E2F80021122000F0DEF81F
:1023C0000021DB2000F0DAF80021302000F0D6F800
:1023D0000021202000F0D2F80021022000F0CEF8E9
:1023E00000218D2000F0CAF80021142000F0C6F86A
:1023F000FFF748FF0021BDE81040AF2000F0BEB855
:1024000070B5174E002505F1B000C0B2002100F0F4
:10241000B5F80021084600F0B1F80021102000F0C6
:10242000ADF8FFF733FD782000F0C6F8FFF76AFD3E
:10243000402000F0C1F8FFF765FD002406EBC40062
:10244000405D00F0B9F8FFF75DFD641CE4B2802C3C
:10245000F4D3FFF73DFD6D1CEDB2082DD3D370BD55
:10246000E80200202DE9FC4F1D46884681468B4638
:102470000090082B0DD0680700D0012000EBD5009C
:1024800069084843C0B2203A02F0FF0A00260190D2
:1024900046E00620F7E7082D10D00C2D14D0102DA3
:1024A00016D0182D3FD122490AEBCA0001EB80005B
:1024B0000027845DE0070FD00B9A10E01D490AEB5E
:1024C0004A0001EB4000F3E70AEB4A001A49EDE746
:1024D0001A4901EB0A10EBE70B9830B30022414692
:1024E0004846FFF707FF7F1C640808F10100FFB2B0
:1024F00000F0FF08082FDDD309F1010000F0FF090B
:10250000082D0AD00099A9EB0100B0EB550F04D1BA
:102510000BF10800894600F0FF0B761CD846F6B296
:1025200001988642B7D3BDE8FC8F0122D7E70000AF
:102530008C5C000800500008285200089C560008D7
:102540002DE9F8411E46154688460446079F0BE0D4
:102550003346414620460097FFF784FF082E0AD0F5
:1025600004EB5600C4B26D1C2A78A2F120005E284C
:10257000EED9BDE8F881A41DE4B2F4E770B50C46CD
:102580000546FFF783FC782000F016F8FFF7BAFC49
:102590000CB1402000E0002000F00EF8FFF7B2FC84
:1025A000284600F009F8FFF7ADFCBDE87040FFF7E2
:1025B0008FBC7047704700002DE9F041124F002496
:1025C00005464FF40078BE15280601D5012200E02B
:1025D000002241463846FEF750FBFFF7AFFC0122D0
:1025E00031463846FEF749FBFFF7A8FC002231468A
:1025F0003846FEF742FB6806641C050EE4B2082C60
:10260000E2D3BDE8F0810000000C0140FEF740BBC2
:1026100030B58FB028216846FDF79BFD14210AA82C
:10262000FDF797FD0120010400248DE813000490BC
:102630004FF4E010CDE90810022507956846FEF733
:10264000B5FC60B90F20CDE90A056802CDE90C4060
:1026500002210AA80E94FEF7B7FB002801D0FEF76E
:1026600071F90FB030BD70470148FEF72DBF000073
:10267000080100200148FEF727BF0000500100209C
:102680000148FEF721BF0000980100200148FEF735
:102690001BBF0000E0010020F0B50268164C174D8A
:1026A000174E4FF08047A04205D0B84203D0A84251
:1026B00001D0B04203D122F070034A681A43A0420D
:1026C00005D0B84203D0A84201D0B04203D122F4D1
:1026D0004073CA681A434B6922F080021A430260B1
:1026E0008A68C2620A688262A04201D109690163F4
:1026F00001214161F0BD0000002C014000040040B8
:102700000008004010B501F01F010123046A8B404E
:102710009C430462036A8A401343036210BD10B5F0
:10272000846842EA032224F47F440A4322438260FD
:1027300010BD826822F070020A4342F007018160F6
:102740007047000030B5026A22F001020262036A9B
:102750004268846924F073050C682C4323F0020559
:102760008B682B430C4DA84206D123F00805CB689B
:1027700043EA050323F0040307D14D6922F44072B4
:1027800045EA02058A6942EA0502426084614968B5
:102790004163036230BD0000002C014030B5026A85
:1027A00022F010020262026A436884690D6824F410
:1027B000E64444EA05248D6822F0200242EA05122C
:1027C0000C4DA84206D1CD6822F0800242EA0512E3
:1027D00022F0400207D14D6923F4406343EA8503A8
:1027E0008D6943EA850343608461496881630262BD
:1027F00030BD0000002C014030B5026A22F4807226
:102800000262036A4268C46923F4007324F073050A
:102810000C682C438D6843EA05230C4DA84206D171
:10282000CD6823F4006343EA052323F4806307D1D2
:102830004D6922F4405242EA05128D6942EA0512BE
:102840004260C4614968C163036230BD002C01402D
:1028500030B5026A22F480520262036A4268C46997
:102860000D6824F4E64444EA05248D6823F40053FB
:1028700043EA0533064DA84204D14D6922F4804253
:1028800042EA85124260C46149680164036230BD56
:10289000002C014010B5046A036A23F001030362AF
:1028A000836923F0F00343EA021324F00A020A4387
:1028B0008361026210BD10B5036A23F01003036246
:1028C0008469036A24F4704444EA023223F0A003CA
:1028D00043EA01118261016210BD10B5406A002116
:1028E000C185C184FFF7D2F810BD0168CA6822F41F
:1028F0009072CA6001684A6922F001024A6120218F
:1029000080F83A10704710B590F83A10222901D09B
:10291000022010BD81684FF48053994201D10269B1
:1029200022B1826A99421BD049B10AE00268816AE9
:102930005268C2F308020A80816A891C08E00169B2
:1029400071B10168496801F07F011170816A491C09
:102950008162C18D491E0904090CC18503D016E0AE
:1029600001684968F1E70168CA6822F02002CA607C
:102970000168CA6822F48072CA6001684A6922F05C
:1029800001024A61202180F83A10FFF759FA00202D
:1029900010BD000070B5044600680169E26821F4CA
:1029A000405111430161A1682069014360690143FD
:1029B0002068C26841F20C639A430A43C2602068EF
:1029C0004169A26921F44071114341611E492068A7
:1029D000884202D1FEF7A4FA01E0FEF791FA00EB7B
:1029E000C00101EB0011606864228000B1FBF0F3CC
:1029F000B3FBF2F36FF018067343B1FBF0F5B1FBD4
:102A0000F0F605EB8305322303EB0515B5FBF2F574
:102A1000B6FBF2F605F0F00505EB0615B1FBF0F696
:102A2000B1FBF0F0B0FBF2F06FF01801484306EB99
:102A3000800003EB0010B0FBF2F0216800F00F0003
:102A40002844886070BD0000003801400148FFF74D
:102A500053B80000280200200148FFF74DB80000DD
:102A6000680200200148FFF747B80000A8020020D4
:102A7000FEE700000FB4084B10B504A902AA0398A2
:102A800000F0EEF8044602A9002000F080FC204689
:102A900010BC5DF814FB00008F3300080907090E15
:102AA000002804DB00F1E02080F80014704700F0FB
:102AB0000F0000F1E02080F8141D704702E008C804
:102AC000121F08C1002AFAD170477047002001E0A8
:102AD00001C1121F002AFBD1704700002DE9FF5FE2
:102AE00082B00021DDE90430020DDDF840B003437F
:102AF00018D044F61050A2F2FF3242431514119838
:102B000001281FD0A5EB0B00401C5FEA000A4FF024
:102B100000064E4FDFF83891B046504615D5CAF141
:102B2000000413E0119801244AA3012801D16FEA9F
:102B30000B010298119AC0E90031C0E9024206B0C7
:102B4000BDE8F09FCBF10000DFE704460021404ADA
:102B5000491842EB0450CDE9001012E0E00707D01D
:102B600032463B4640464946FDF73BFC8046894697
:102B700032463B4610461946FDF733FC06460F46E3
:102B80006410002CEAD1DDE90401DDE90023BAF18B
:102B9000000F06DAFDF725FC42464B46FDF721FC07
:102BA00005E0FDF790FC42464B46FDF78CFC0446E1
:102BB0000E460022284BFDF78BFE03D84FF0FF3066
:102BC000014607E00022254B20463146FDF762FB17
:102BD000FDF765FE102409E0002C0ADB0A22002321
:102BE000FDF777FD039B30321A55641E50EA01024F
:102BF000F2D1641C039AC4F111031444119A012AFE
:102C000003D0012208430DD10AE0084304D000207C
:102C10004FF0110B119072E7A3EB0B056D1E0DE049
:102C20005B4504DD4FF0000205F1010504E003DA25
:102C30004FF00002A5F10105002AECD0029811998D
:102C4000C0E90231C0E9004579E700000000144006
:102C50000000F03F300000000000F0430000E03FC3
:102C60002DE9FF4F95B09B468946064600250FE2A9
:102C7000252877D100242746F84A0121059400E051
:102C8000044316F8013F203B01FA03F01042F7D14C
:102C900030782A2811D06FF02F033078A0F130025D
:102CA000092A16D8059A44F0020402EB820203EBCB
:102CB00042021044761C0590EFE759F8042B059268
:102CC000002A03DA504244F40054059044F0020410
:102CD000761C30782E2816D116F8010F44F0040423
:102CE0002A280DD06FF02F023078A0F13003092B85
:102CF00009D807EB870302EB4303C718761CF3E7F9
:102D000059F8047B761C30786C280FD006DC4C28F0
:102D100017D068280DD06A2814D104E0742810D088
:102D20007A280FD10DE044F400140AE044F4801432
:102D300001E044F440147278824202D104F5801418
:102D4000761C761C307866280BD013DC582877D098
:102D500009DC002875D04528F6D04628F4D047284D
:102D60001AD19DE118E0632835D0642879D0652810
:102D700012D195E1702873D008DC6728F1D069285A
:102D80006FD06E280DD06F2806D1B5E073282CD0F7
:102D9000752875D0782874D05A46179990476D1CBD
:102DA00075E1C4F30250022809D003280DD0D9F8E8
:102DB000001004280DD00D6009F1040967E1D9F86D
:102DC0000010EA17C1E90052F6E7D9F800100D80AB
:102DD000F2E70D70F0E719F8041B8DF800100020E1
:102DE0008DF80100EA46012003E059F804AB4FF0EA
:102DF000FF3061074FF0000102D40DE008F101013E
:102E00008846B9420FDA8045F8DB1AF80810002925
:102E1000F4D108E008F1010188468142FADB1AF892
:102E200008100029F6D105985B46A0EB080721465B
:102E30003846179A00F094FA284400EB080507E09A
:102E40004DE029E10DE01AF8010B5A461799904719
:102E5000B8F10108F7D25B4621463846179A13E1CC
:102E600042E00A220092C4F302524FF0000A022A02
:102E700008D059F804CB032A4FEAEC710AD00DE0D0
:102E800029E02AE009F1070121F00702F2E802C176
:102E9000914609E00FFA8CFC4FEAEC71042A03D149
:102EA0004FFA8CFC4FEAEC71002907DA0A46002140
:102EB000DCF1000C61EB02012D2202E0220504D5B9
:102EC0002B228DF80420012203E0E20701D020220A
:102ED000F7E7904659E00A2102E010220DE01021A8
:102EE0004FF0000A00910BE010224FF0000A44F06E
:102EF00004040827009203E008224FF0000A009221
:102F0000C4F30252022A05D059F804CB0021032A47
:102F100008D009E009F1070121F00702F2E802C137
:102F2000914605E01FFA8CFC042A01D10CF0FF0C3D
:102F30004FF00008220728D5702806D0009B83F0A8
:102F4000100353EA0A0305D00EE040228DF8042056
:102F5000012208E05CEA010206D030228DF804204C
:102F60008DF8050002229046009B83F0080353EA87
:102F70000A030AD15CEA010201D1620705D53022B9
:102F80008DF804204FF001087F1E582804D034A08B
:102F900003900EA802900DE036A0F9E75346604674
:102FA000009AFDF796FB84460398825C0298401EC7
:102FB000029002705CEA0100F0D1029806A9081A9A
:102FC00000F1200A600702D524F4803400E00127D4
:102FD000574502DDA7EB0A0000E0002000EB0A01E4
:102FE000009005984144401A0590E00306D45B46E2
:102FF0002146179A059800F0B3F90544002706E02A
:1030000001A85A46C05D179990476D1C7F1C474523
:10301000F6DBE0030CD55B462146179A059800F0D5
:103020009FF9054404E030205A46179990476D1CDB
:103030000099481E00900029F5DC08E002980299EA
:103040005A460078491C0291179990476D1CBAF1B5
:103050000001AAF1010AF1DC65E100000928010084
:1030600030313233343536373839616263646566FE
:1030700000000000303132333435363738394142C0
:10308000434445460000000000F058F90544761C12
:10309000307800287FF4ECAD19B02846BDE8F08FF9
:1030A000620700D4062709F1070222F0070CFCE8AA
:1030B0000223E14603F000485FEA080C02D00FF259
:1030C000702C0DE05FEA045C02D50FF2682C07E07B
:1030D0005FEAC47C02D00FF2602C01E0AFF2700C0A
:1030E0004FF0FF3823F00043CDF850C065280CD0D6
:1030F00006DC452809D046281DD047283DD13DE0B3
:10310000662818D067287ED138E00021112F01DB16
:10311000112000E0781CCDE9000106A90EA8FFF7F8
:10312000DDFCDDE90F010E9A03910021009207F109
:10313000010A04914DE04FF000400097CDE90110E5
:1031400006A90EA8FFF7CAFCDDE90F0203920E9B49
:1031500011990022DDF80CA00093049211B9791C9A
:1031600000EB010AB7EB0A0004D4C0F1FF3007F10D
:10317000010A0490AAEB0700019044E0012F00DA55
:1031800001270021112F01DD112000E03846CDE993
:10319000000106A90EA8FFF7A1FCDDE90F010E9AB8
:1031A0000391002104910092BA4621070CD403999F
:1031B000514500DA8A46BAF1010F05DD009AAAF1FD
:1031C0000101515C302908D0B84202DA10F1040F35
:1031D00006DA0121CDE9011015E0AAF10101E9E7C4
:1031E000002805DC049901440491AAEB000102E0E7
:1031F000411C514500DD8A460499401A401C01904B
:103200004FF000400290200704D40198504501DBA4
:10321000CDF8048000208DF84F0002980DF14F0783
:10322000B0F1004F25D02B200E9002984FF00208ED
:1032300000280CDA404202902D200E9007E00A216F
:103240000298FDF730FA3031029007F8011DB8F10D
:103250000001A8F10108F2DC02980028EFD1791EE4
:103260000E980870307800F0200040F0450007F814
:10327000020D12A8C01B00F107081498007800B1D5
:10328000012000EB0A01019801EBE071059841442F
:10329000401A401E0590E00306D45B462146179A6B
:1032A000059800F05DF805441498007818B15A4666
:1032B000179990476D1CE00324D55B462146179A69
:1032C000059800F04DF805441CE00498002807DB41
:1032D000DDE90301884203DD0098405C179901E0B5
:1032E000179930205A469047049805F10105401C73
:1032F00004900198401E019004D12E205A4617993F
:1033000090476D1CBAF10001AAF1010ADDDC05E06D
:1033100017F8010B5A46179990476D1CB8F1000138
:10332000A8F10108F4DC5B462146179A0598ABE644
:103330002D0000002B000000200000002DE9F041CE
:10334000044600251E461746880404D405E0394685
:103350002020B0476D1C641EF9D52846BDE8F081D9
:103360002DE9F041044600251E469046C80301D5CC
:10337000302700E02027880404D505E04146384680
:10338000B0476D1C641EF9D52846BDE8F0810A6877
:10339000531C0B60107070474FF41661884202DCBA
:1033A0004942884200DA08467047000030B5044CB4
:1033B0000025257120706170A270E37030BD00009F
:1033C000C00000200449884202DC0449884200D938
:1033D0000846FDF701B9000000001644000016C4BD
:1033E0000749C871532807D04A790A724872487948
:1033F00088720120C872704700200872F9E7000047
:10340000C000002010B500F01DF8BDE8104000F02D
:103410006BB90000094908B50869401C08610848F3
:10342000FEF707FB06490022086803684068009021
:10343000CA63BDE8084000F057B90000C000002092
:103440002802002070B5634CA071E189491CE1811C
:10345000E27A0121002502B330281ED339281CD876
:10346000E279532A09D0303809280CD810F0FF002F
:1034700007D0052808D9052006E0257200F072FA69
:1034800009E0084600E06079607160792072E079B7
:1034900060726079A072E57270BDE57242285CD0FE
:1034A00022DC2B2875D00EDC1328F5D2DFE800F0E3
:1034B0005D610A690A550A720A7D830A0A0A0A0AC4
:1034C0008A4B8C00E8E72D381528E5D2DFE800F0BC
:1034D000730B0B4D514559620B6D737A3B0B0B0B04
:1034E0000B0B0B0B5900D7E7622836D01CDC522897
:1034F00050D00CDC4C2844D004DC44284AD0462868
:10350000CAD136E04D285DD04F28C5D11BE05728E1
:103510002FD004DC532828D05428BDD154E058289B
:103520001BD06128B8D12CE0722833D00DDC6C2878
:1035300027D004DC64282DD06628ADD119E06D2891
:1035400040D06F28A8D1217140E073280DD0742895
:103550003AD077280DD078289ED100231A46012131
:103560001846FFF723FF42201BE000F0FBF9532031
:1035700017E000231A4619460120FFF717FF4620DF
:103580000FE00023012219461846FFF70FFF4C20D9
:1035900007E00AE00022012311461046FFF706FF6C
:1035A0005220BDE87040FFF71BBF6079052889D223
:1035B0006079401C04E06079012894D96079401E4C
:1035C000607170BD257101E002202071BDE870407E
:1035D00000F0C8B9C000002070B5044672B600F013
:1035E000C1F9184E00253571B5715320F07135724F
:1035F0007072B572F572F5810321717162B6207037
:103600006070A570E070257165713079A071707976
:10361000E07125726572A572E56025616561FDF74F
:1036200031FBC4E9060525627079C821484300F5DD
:103630001670C4E90905E562BDE87040002108463E
:1036400000F0C2BDC0000020F8B5517914462D2508
:10365000A1F120025E2A00D80D4601F0B9F9024618
:1036600001260021102308460096FEF769FF009509
:10367000A378627811A11548FFF7FCF90823134AD3
:10368000142100200096FEF75BFF11A10F48A26AEB
:10369000FFF7F0F908230D4A222100200096FEF7DB
:1036A0004FFF0EA10948E26AFFF7E4F90823074A31
:1036B000302100200096FEF743FFF8BD436D643AC9
:1036C00025632575205261773A256300D4000020D8
:1036D0004C656674203A25346400000052696768BE
:1036E000743A253464000000012202490248FEF7C2
:1036F0007DBB0000CC000020280200202DE9FF4FF8
:10370000924D83B05FEA030B2F788A46044695F802
:103710000190A8780190E878009095F8048001D095
:10372000012600E00026E9896069884204D0E88922
:103730006061FDF7A7FAA061287808B146200CE087
:10374000687808B1422008E0A87808B14C2004E06D
:10375000E87808B1522000E053202070E8796070CA
:10376000287AA070687AE070A87A2071A8796071D0
:1037700084F806806879E0716879C821484300F5CB
:10378000167060625FEA0A004FF0530A4FF00005BE
:1037900002D0B8F1000F0AD084F800A0A562E5625B
:1037A00025726572A572002108462562C9E0A069EC
:1037B00048B1FDF767FAA169401AB0F5FA6F02DB6C
:1037C00000F0D0F8E8E74FF0010817B36572A57272
:1037D000C6B1207A18B90598E06184F80880E069DC
:1037E000059900F0E3F85A49FCF716FDFFF7EAFDEA
:1037F0002062616A081AFFF7CFFDA062D4E90810C1
:10380000084414E02562606AFFF7C6FDA062606AA2
:103810000DE0B9F1000F0ED025726572A572256218
:10382000606A4042FFF7B8FDA062606A4042FFF75D
:10383000B3FDE06217E0019820B1A6B1607AA8B9A3
:10384000444905E00098B0B36EB1607A70B942495E
:10385000059800F091F8E06184F80980A572FDF701
:1038600011FAE0602572607A50B3C6B3E069059939
:1038700000F09CF807463649FCF7CEFC0646FFF7F9
:10388000A1FD2062384617F1FF4F01D387F00040B9
:103890003249884218DCA562E5622562A07A401CA4
:1038A000C0B2A072032832D300F05CF86572A57232
:1038B00084F800A041E0FFE725726572A5722562D9
:1038C00057EA090737D038E0A5723046FFF77AFD8E
:1038D000411E4FF42272914202D8901C0EE018E073
:1038E00000F28921914201D81D4807E04FF496610A
:1038F000884202DC4942884200DA0846206240429F
:10390000FFF74AFDA062206AFFF746FDE062607A99
:1039100098B1FDF7B7F9E168401A40F6AC5188421A
:103920000BD300F01FF86572A57284F800A0A562A1
:10393000E562256201E0A562E562C4F810B0D4E951
:103940000A0107B0BDE8F04F00F03EBCC000002007
:103950000000B0410000B4420000B4C2000040408A
:1039600076FDFFFF03480021017041708170C17036
:1039700070470000C000002070B5FCF7F5FB084D53
:10398000084C02E02946FCF741FCA042FADC064C58
:10399000A04203D92946FCF7E7FBF9E770BD000018
:1039A0000000B44300003443000034C370B5FCF79A
:1039B0002DFC084D084C02E02946FCF727FCA042EC
:1039C000FADC064CA04203D92946FCF7CDFBF9E707
:1039D00070BD00000000B44300003443000034C355
:1039E00070B50D4C0546002202212046FDF745F931
:1039F000002201212046FDF740F92846FDF72AF86C
:103A0000012211462046FDF738F92046BDE87040F6
:103A100001220221FDF731B9000C01404FF416617B
:103A2000884202DC4942884200DA084670470000BA
:103A300070B5154D154C042815D0022813D0E91483
:103A4000CB10884201D098420CD128462A4600F07B
:103A50001FF805460146607800F02EF8A16808447A
:103A6000A060657070BD022328462A46042100F03C
:103A70000FF805460146207800F01EF861680844FA
:103A80006060257070BD0000000801401800002033
:103A900070B51D461646FDF7E3F801280AD000244C
:103AA00029463046FDF7DCF8012800D0002040EA26
:103AB000440070BD0124F3E741EA80000149085643
:103AC00070470000106E0008002800DC404270477C
:103AD000032803D0042801D000207047012070473C
:103AE0002DE9F041324C00216268521C6260607026
:103AF0002278304DEAB10026552818D0A854521C1F
:103B0000D0B220700B2819D300202A5C401C11442D
:103B1000C0B2C9B20A28F8D3AA7A8A4202D1687818
:103B200053280DD08A423ED16878A0703EE02670BE
:103B300001E0552802D1287001202070BDE8F081F5
:103B4000A070A978E87841EA002000B2FCF72AFDCD
:103B50006FF00E073946FCF791FBDFF85C804146B9
:103B6000FCF75AFB20612979687941EA002000B20C
:103B7000FCF718FD3946FCF781FB4146FCF74CFB8E
:103B80006061A879E97940EA012000B2FCF70AFDFA
:103B90003946FCF773FB4146FCF73EFBA061A06889
:103BA000401CA06002E0E068401CE0602670C5E7B1
:103BB0006C00002028080020000034432DE9F0416B
:103BC00015460E460746FDF74BF8012800D00020A9
:103BD0002978002401290CD158B90A20FCF73AFFB2
:103BE00031463846FDF73CF8012800D0002000B9E6
:103BF000012428702046BDE8F08100002DE9F0473F
:103C000000241C4D1C4FDFF8749001264FF48048AF
:103C100008B12E7001E0287848B120213846FDF720
:103C20001FF858B141464846FDF71AF830B1202137
:103C30003846FDF715F8012812D018E00A20FCF7E5
:103C400009FF0020287020213846FDF709F800B947
:103C5000012441464846FDF703F840B9022406E036
:103C600041464846FCF7FCFF012800D12E70204653
:103C7000BDE8F08798000020000C014000100140D2
:103C800010B541F6583302685C429A4201DD036088
:103C900002E0A24200DA04600868984201DD0B608D
:103CA00010BDA042FCDA0C6010BD4FF416618842D2
:103CB00002DC4942884200DA0846704770B500F0DD
:103CC00075F800230C4D1A461946012606FA01F430
:103CD000044203D06C56521C2344D2B2491CC9B2D0
:103CE0000829F3D305494A701AB193FBF2F04860F2
:103CF00070BD0020486070BD486E0008B80000200C
:103D000008B10020704701207047000010B5FFF790
:103D1000D5FF05494864FCF745FC0146BDE8104065
:103D2000024800F005B80000240000200808002028
:103D30002DE9F04104460068FCF768FA4FF07E5127
:103D4000A060884203DA10F1814F00D2A160A06820
:103D5000E269054601461046FCF706FA1149E061A2
:103D6000884202DA1049884200D9E1612846E168B8
:103D7000FCF74CFAA169FCF74FFA0646E169606965
:103D8000FCF74AFA074629462069FCF745FA394606
:103D9000FCF7EAF93146FCF7E7F9E5606060BDE859
:103DA000F081000000007A4400007AC470B5294D0B
:103DB00000244FF480512846FCF752FFFFF7A0FF84
:103DC00000B101244FF400512846FCF749FFFFF7EA
:103DD00097FF08B144F002044FF480412846FCF7F5
:103DE0003FFFFFF78DFF08B144F004044FF4004695
:103DF00031462846FCF734FFFFF782FF08B144F054
:103E0000080440212846FCF72BFFFFF779FF08B193
:103E100044F0100431461048FCF722FFFFF770FF12
:103E200008B144F0200408212846FCF719FFFFF7E9
:103E300067FF08B144F0400410212846FCF710FF4A
:103E4000FFF75EFF08B144F0800404480470204688
:103E500070BD0000000C014000080140B8000020C7
:103E600070B516480078012803D01548007801285D
:103E700022D1144CA078401CC0B2A070022804D3F8
:103E80000020A070FFF742FF20630F4D216B2846F2
:103E9000FCF7BCF901460D4800F068FF2946206B8D
:103EA000FCF762F901460A4800F060FF00F060FF8D
:103EB000606300F083FFA06370BD00001400002069
:103EC00015000020240000200000C84268070020E0
:103ED0008807002010B50D4C002202212046FCF777
:103EE000CCFE002201212046FCF7C7FE3220FCF761
:103EF000B1FD012211462046FCF7BFFE20460122FB
:103F0000BDE810400221FCF7B8BE0000000C0140E3
:103F1000022904D1002A02D1017C491C0174704796
:103F200018B1012801D000207047012070470228F5
:103F300001D0002070470120704710B50446FFF7FC
:103F4000EFFF20B92046FFF7F2FF002800D0012044
:103F500010BD002101704170416001724172817297
:103F6000C1720422C16002744174416101767047DC
:103F700070B504460E460846FFF7DFFF20700025A7
:103F80006570FCF77FFE606025726572A572E57250
:103F9000E560022E04D0304600F00CF8607470BD6D
:103FA0000020F9E700210170417041728172C172F5
:103FB000C160704708B1012070474FF0FF30704773
:103FC0002DE9F05F044600781F4615468B46002811
:103FD0006ED0FFF773FE606179480078207658460E
:103FE000FFF7A5FF774E4FF001094FF0000840B3EF
:103FF000607A00285FD104E084F8098084F80A80A0
:1040000083E060783178084318D1A07A401CC0B2B0
:10401000A072032879D384F80A80207A401C207289
:10402000FFF758FF207A217C884202D384F8019060
:1040300065E00020FFF7BEFF607463E084F80A804B
:1040400063E05846FFF76CFF80B3E07A4FF4966A5E
:1040500068B3012810D0C5F8008000214646084604
:10406000C7F8008000F0B0F8FCF70CFEE168401AD9
:10407000962844D3E672D9E7C5F800A0C7F800A097
:104080005146286800F0A0F8FCF7FCFDE168401AF2
:10409000C82834D30220E072FCF7F4FDE060C5F8D4
:1040A000008000210846C7F8008026E027E000E0F5
:1040B00083E0607A18B1307800289DD12FE0307805
:1040C0000028BBD1A07A401CC0B2A07203281CD328
:1040D00084F80A80207A401C2072FFF7FBFE207AC9
:1040E00004280FD384F80B90FCF7CCFDE060C5F8F2
:1040F00000A0C7F800A05146286800F065F8607A73
:1041000018B10CE084F8099009E05846FFF708FF61
:1041100008B1E07A08B9607820B1607A70B360784D
:1041200098B12BE06669162046434FF42F70864203
:1041300002DC4042864200DA064606F59660FFF74A
:10414000B4FD2860C6F5966010E094F9110040F2C5
:104150001A414843C0F5E170FFF7A7FD286094F9C4
:10416000110040F21A41484300F5E170FFF79DFD50
:1041700038602A680146104600F026F85846FFF7D6
:10418000CFFE60B1E07A50B9FCF77CFD6168401A5F
:1041900044F25061884202D384F8019002E06078D2
:1041A00000280AD084F80080C5F800800021084665
:1041B000C7F8008000F008F80120BDE8F09F00007B
:1041C000B8000020B900002070B51A4C0E46051E3C
:1041D00006DD002210212046FCF74FFD012205E0FC
:1041E000012210212046FCF748FD00222021204614
:1041F000FCF743FD2846FFF767FC0F4D296848632D
:10420000002E06DD002208212046FCF736FD0122A3
:1042100005E0012208212046FCF72FFD00220121A4
:104220002046FCF72AFD3046FFF74EFC29688863DC
:1042300070BD00000008014098010020084810B53A
:10424000C068FCF7AFF90146064800F02BF80649B4
:10425000884202DC0549884200D9084610BD0000AA
:1042600024000020A80700200000C8420000C8C2A7
:10427000084810B50069FCF795F90146064800F0BA
:1042800011F80649884202DC0549884200D90846EF
:1042900010BD000024000020C80700200000C84214
:1042A0000000C8C22DE9F04104460068FBF7AEFFEC
:1042B0000546A0602946E069FBF756FFE061074626
:1042C0002846E168FBF7A2FFA169FBF7A5FF0646B8
:1042D00039466069FBF7A0FF074629462069FBF7CE
:1042E0009BFF3946FBF740FF3146FBF73DFFE5609A
:1042F0006060BDE8F0810000134810B50078012827
:1043000003D01248007801281CD1114C2078401CA1
:10431000C0B22070022807D300202070FFF78EFF64
:104320006062FFF7A5FFE0620A48616A00F01EFDC7
:104330000948E16A00F01AFD00F01AFD206200F061
:104340003DFDA06210BD00001400002015000020FB
:104350002400002068070020880700200026A4B061
:1043600001201D961C961B961F968DF880008DF8D7
:1043700084008DF88800B1461A963546B04634461A
:10438000B346302107A8FBF7E4FEFCF789FCFEF7F3
:104390003FF9FDF7D9FDFDF7C7FEFDF7F9FEFDF783
:1043A00037FFFDF751FF0021FD48FDF70FFA04210B
:1043B000FB48FDF70BFA00F02DFCFA4BFA4AFB49DB
:1043C000FB4800F0CFFC13A8FFF7C3FDFFF78CF903
:1043D0000122F849F848FDF709FDF8490870FDF792
:1043E0009FFF0020FDF764FF0020FDF76CFF00F049
:1043F000E3FBF34F3870FFF76BFB30B107A8FFF713
:10440000EBF811981A9012981B903878DFF8B4A343
:104410001E901D98401C1921B0FBF1F21D9001FB6C
:10442000120020B94FF40051E748FCF71EFCE448A5
:104430000078FFF74DFB00286DD1E44802681F9912
:104440008A4253D000684FF000091F902EB91CA972
:10445000DAF8000000F048FC0126D548DAF8001030
:1044600000F03AFD10F1FF4F01D2014601E080F06B
:104470000041D74A904202DCD64A904201D9104608
:1044800007E0D54A904204D2D44A904201DA002093
:1044900008E0D34A914205DAB0F5000F01DB10467F
:1044A00000E0D048FCF798F807464FF416708742B2
:1044B00002DC4042874200DA0746B8F1000F0BD019
:1044C0007842FFF7ABFA1A903846FFF7A7FA1B902D
:1044D00045B101461A981CE0E01BFFF79FFA1A90BD
:1044E000E019F2E700201A901B9010E0002EF9D09E
:1044F00009F1010000F0FF09B9F10A0F0BD9002002
:10450000AB491A901B90C8614FF00A09C86000219E
:104510000846FFF759FE20AA2021B348FFF74EFBBB
:10452000A94F019021AA4FF480413846FFF746FB7E
:10453000009022AA4FF400413846FFF73FFB40B1FC
:104540002820FFF74DFA9E482A46017813A8FFF766
:10455000DFFC019818B32820FFF742FA984F38780B
:10456000FFF7B6FAE0B165B1002507A8FFF734F808
:1045700011981A9012981B9000F041FB00F080FCFB
:1045800031E007A8FFF728F811981A901298012532
:104590001B9000F0C3FB00F0D9FB00F079FC22E097
:1045A00055B19DF84C0098B1002513A8FFF7FAFC0F
:1045B000002400F024FB16E0397813A8FFF7D8FC9C
:1045C00000F05EFC012500F0A9FB00F0BFFB04E059
:1045D000B8F1000F56D00020804626B11CA9DAF8A9
:1045E000000000F081FB0098E8B35020FFF7F8F9D5
:1045F0000025A84613A8FFF7ACFC002407A8FEF787
:10460000EBFF00201A901B9000F0F9FA00F038FC44
:10461000FDF738FE01270021102374A208460097F9
:10462000FDF78EFF082375A2182100200097FDF7E3
:1046300087FFFDF7E5FE4FF4FA70FCF70BFA00F088
:10464000BBFA5F4F3870FFF743FA30B107A8FEF7A7
:10465000C3FF11981A9012981B9038781E904FF053
:10466000000B13A800E00FE0FFF773FC07A8FEF7AC
:10467000B3FF002E3FF4CDAE1CA9DAF8000000F025
:1046800033FBC6E60120A7E74D480078FFF720FA84
:10469000D0B34B4F1E98397888420ED0002507A81A
:1046A000FEF79AFF11981A9012981B9000F0A7FA43
:1046B00000F0E6FB38781E9005E025B100F02EFBF7
:1046C00000F044FB03E000F01DFB00F033FB3F482B
:1046D0000368294607A8DAF80020FFF70FF81198B9
:1046E0001A9012981B90FCF7CDFAA0EB0B006428EF
:1046F00055D3FCF7C7FA8346FDF7C4FD07AA294640
:104700003878FEF7A1FFA0E0FFE725B39DF84C0045
:10471000F0B12B481BAB1AAA017813A8FFF750FC85
:1047200098B100252C4600F06AFA002700F0B0FB93
:104730005020FFF755F900F0A3FB5020FCF78AF951
:104740007F1CFFB2032FF1D32DB19DF84C0010B99F
:10475000B8F1000F07D00020844207DA04F12804E2
:10476000844207DC07E04FF4AF60F5E703DD283C47
:10477000844200DA04461DB900F0C4FA00F0DAFA07
:10478000FCF780FAA0EB0B00642860D3FCF77AFA00
:104790008346FFF793FA18901C48007838E056E0FB
:1047A000980100200000C0400AD7A33D0000B0419E
:1047B000E807002001000020A80200208C00002053
:1047C0000000002084000020001001407400002040
:1047D00000004845000048C5000034C300003443D1
:1047E0000000E1440000E1C4000C01404578697418
:1047F00020546F204D656E75000000004D6F746F82
:1048000072732073746F707065640000B8000020CC
:104810008DF86400FDF736FDDDE91A239DF855009B
:104820000DF10C0C9DF85C108CE80F0018989DF8A9
:1048300054209DF864108DE8070007481C9B29460A
:104840000078DAF8002000F02BF9FDF7D9FD1420EC
:10485000FCF700F9DDE500000000002070B50D4C0C
:104860000546002202212046FCF707FA002201211A
:104870002046FCF702FA2846FCF7ECF80122114624
:104880002046FCF7FAF92046BDE8704001220221DB
:10489000FCF7F3B9000C01402DE9F8430646FDF79B
:1048A000F1FC01250021102316A208460095FDF712
:1048B00047FE0024DFF858801227B44258F824300D
:1048C00001D13E2200E0202212A11448FEF7D2F8C6
:1048D000C4EBC40007EB4000C1B208230F4A00201C
:1048E0000095FDF72DFE641CE4B2022CE5D30823ED
:1048F0000BA2342100200095FDF722FEBDE8F8430D
:10490000FDF77EBD4D61696E204D656E750000003E
:104910009C0000202563257300000000D4000020C7
:104920004B303A4E657874204B313A456E7465725F
:10493000000000002DE9F8431D4E0325884604467B
:10494000012801D118360225FDF79CFC19480127E2
:10495000009750F82420002110230846FDF7F0FDB1
:10496000002418E056F83430444501D13E2200E0DE
:10497000202211491148FEF77DF804EB440000EBBA
:10498000C4001230C1B208230C4A00200097FDF782
:10499000D7FD641CE4B2AC42E4D3082308A234215E
:1049A00000200097FDF7CCFDBDE8F843FDF728BDDA
:1049B000206E00089C00002014490008D40000204C
:1049C0004B303A4E657874204B313A4F4B00000023
:1049D000052801D302A07047034951F82000704711
:1049E000554E4B4E4F574E00A4000020F8B5244DB5
:1049F000032600240746012801D11835022600208D
:104A0000FFF7FCF868B1012802D0022809D110E0B4
:104A10002820FFF723FF641CB4FBF6F006FB1040D0
:104A2000C4B221463846FFF785FF9620FCF712F8FE
:104A3000E5E75020FFF712FFFDF724FC01260021D7
:104A4000102310A208460096FDF77AFD009655F84F
:104A50003420082318210020FDF772FD08230CA242
:104A60002C2100200096FDF76BFDFDF7C9FC4FF4EB
:104A70004870FBF7EFFF05EBC4000079F8BD0000BC
:104A8000206E00084D6F6465204C6F636B65640099
:104A900052656C65617365206B6579732E2E2E00EF
:104AA0002DE9F84F0F46DDE90DB10425DDF828A00A
:104AB000DDF83090DDF840801646022800D10D4622
:104AC000FFF786FF024601240021082308460094D0
:104AD000FDF736FD0095002F44D023A24B4623A1BD
:104AE0002648FDF7C7FF0823244A0A210020009426
:104AF000FDF726FD3046FBF7A7FD02460B4620A139
:104B00001E48FDF7B7FF08231C4A1421002000941B
:104B1000FDF716FD52461DA11848FDF7ABFF08230F
:104B2000164A1E2100200094FDF70AFD5B461AA1DB
:104B300012480B9AFDF79EFF0823104A28210020F7
:104B40000094FDF7FDFC434616A10C480F9AFDF7B3
:104B500091FF0823094A322100200094FDF7F0FC60
:104B6000BDE8F88F12A2B9E74F4E0000523A257304
:104B700020433A25752F257500000000D400002041
:104B80005961773A25362E31660000004C696E6512
:104B90003A25356400000000533A2530325820543D
:104BA0003A2575004C3A25346420523A2534640085
:104BB000534146450000000070B500240125002047
:104BC000FFF71CF848B1012802D0022805D10BE0FC
:104BD0002820FFF743FE25EA04042046FFF75CFE89
:104BE0009620FBF737FFEAE75020FFF737FEC82093
:104BF000FBF730FF2046BDE87040FFF7F7BE10B569
:104C000000210846FFF7E0FA00F07CF8BDE810400C
:104C100000F090B8204910B5002008604860886016
:104C2000C8601E4BC861C1E90430886140391C4C22
:104C3000086048608860C8600C611A4AC861C1E9B0
:104C400005206031086048608860C860C861C1E9BB
:104C5000043088614039086048608860C8600C6131
:104C6000C861C1E9052060310F4A0860486088606A
:104C7000C860C861C1E90420886120314FF08142D9
:104C8000086048608860C860C861C1E904204FF0CE
:104C90007E50886110BD0000A80700209A99993EB7
:104CA0000000C040000008419A99993F30B5024683
:104CB0000020EFF3108172B6084D094B0446AA425A
:104CC00002D158685C6004E0064DAA4201D19868A0
:104CD0009C60002900D162B630BD00005001002068
:104CE00018000020E001002010B5086001460448CB
:104CF00000F03CF802490020C861C86010BD000007
:104D0000E807002003490020087001460248FCF72C
:104D1000ADBD0000140000209801002003490120CF
:104D2000087000210248FCF751BD0000140000206B
:104D30009801002003490020487004210248FCF734
:104D400095BD0000140000209801002003490120B7
:104D5000487004210248FCF739BD0000140000200F
:104D600098010020103080E80E0070470160704705
:104D70000D4810B5B0F90800FBF71DFC00220B4BE5
:104D8000FBF72FFB00220A4BFBF72BFB0022094B02
:104D9000FBF799FBFBF739FCFBF704FC0146BDE888
:104DA0001040054800F030B82400002000408F403B
:104DB00000004E400050D440680700200D4810B558
:104DC000B0F90A00FBF7F7FB00220B4BFBF709FBDE
:104DD00000220A4BFBF705FB0022094BFBF773FB94
:104DE000FBF713FCFBF7DEFB0146BDE8104005486E
:104DF00000F00AB82400002000408F4000004E4020
:104E00000050D440880700202DE9F0410446006896
:104E1000FBF7FCF9A060B0F17C5F04DAB0F13F4F22
:104E200001D20020A060E269054601461046FBF76A
:104E30009BF91149E061884202DA1049884200D9A1
:104E4000E1612846E168FBF7E1F9A169FBF7E4F9C4
:104E50000646E1696069FBF7DFF9074629462069E4
:104E6000FBF7DAF93946FBF77FF93146FBF77CF9B6
:104E7000E5606060BDE8F08100007A4400007AC41B
:104E8000012202210148FBF7F8BE0000000C01409E
:104E9000002202210148FBF7F0BE0000000C014097
:104EA000094810B50068FBF797FBFBF77BFB014651
:104EB000064800F011F80649884202DC054988429C
:104EC00000D9084610BD000084000020E80700203B
:104ED0000000C8420000C8C22DE9F0410446006845
:104EE000FBF794F9224E234DA06003E03146FBF717
:104EF0008DF9A060A842F9DC1F4DA84204D93146C3
:104F0000FBF732F9A060F8E710F1814F05D2B0F15C
:104F10007E5F02DA0020A060E061A068E2690546D9
:104F200001461046FBF720F91449E061884202DC93
:104F30001349884200D9E1612846E168FBF766F928
:104F4000A169FBF769F90646E1696069FBF764F955
:104F5000074629462069FBF75FF93946FBF704F954
:104F60003146FBF701F9E5606060BDE8F0810000C3
:104F70000000B44300003443000034C300009643F3
:104F8000000096C3134810B50078012803D01248DA
:104F9000007801281CD1114C6078401CC0B26070B0
:104FA000022801D2206B04E000206070FFF778FF38
:104FB000206380F000410A48FFF7D8FE0948216BC2
:104FC000FFF7D4FEFFF7D4FE6063FFF7F7FEA063A0
:104FD00010BD000014000020150000202400002057
:104FE0006807002088070020000000000000000083
:104FF000010203040607080900000000010203047F
:105000000000000000000000002F0000000007006A
:10501000070000147F147F1400242A7F2A120062E4
:105020006408132300364955225000000503000090
:1050300000001C224100000041221C000014083E18
:1050400008140008083E0808000000A060000008DE
:105050000808080800006060000000201008040232
:10506000003E5149453E0000427F400000426151F0
:105070004946002141454B31001814127F1000278A
:1050800045454539003C4A4949300001710905034D
:1050900000364949493600064949291E000036367E
:1050A00000000000563600000008142241000014E1
:1050B00014141414000041221408000201510906BE
:1050C00000324959513E007C1211127C007F49493F
:1050D0004936003E41414122007F4141221C007F70
:1050E00049494941007F09090901003E4149497A7E
:1050F000007F0808087F0000417F410000204041F8
:105100003F01007F08142241007F40404040007F63
:10511000020C027F007F0408107F003E4141413EA7
:10512000007F09090906003E4151215E007F0919EF
:1051300029460046494949310001017F0101003FEC
:105140004040403F001F2040201F003F4038403F6C
:1051500000631408146300070870080700615149D0
:10516000454300007F41410000552A552A55000063
:1051700041417F00000402010204004040404040E1
:10518000000001020400002054545478007F484479
:10519000443800384444442000384444487F0038B0
:1051A0005454541800087E0901020018A4A4A47CD9
:1051B000007F080404780000447D400000408084A3
:1051C0007D00007F102844000000417F4000007CEB
:1051D00004180478007C08040478003844444438F7
:1051E00000FC242424180018242418FC007C080443
:1051F000040800485454542000043F444020003C1C
:105200004040207C001C2040201C003C4030403CA2
:10521000004428102844001CA0A0A07C0044645432
:105220004C44141414141414000000000000000076
:10523000000000000000FC00000000000200000070
:10524000000C020C020000000000000090D0BCD056
:10525000BC900003000300001824FE448C000302ED
:10526000070201001824D8B04C800003000102019D
:10527000C038E438E0000102020102020806000022
:105280000000000000000000000000F80402000020
:1052900000010204000204F8000000040201000002
:1052A0009060F86090000000010000002020FC20C9
:1052B00020000000010000000000000000000806BF
:1052C000000000002020202020000000000000003E
:1052D0000000000000000002000000000080601CD0
:1052E0000200040300000000F8040404F8000102B6
:1052F000020201000008FC0000000002030200009E
:105300001884442418000302020202000804242422
:10531000D80001020202010040B088FC80000000B9
:10532000000302003C242424C40001020202010004
:10533000F824242CC0000102020201000C04E41C29
:105340000400000003000000D8242424D800010237
:105350000202010038444444F80000030202010044
:10536000000010000000000002000000000020000B
:105370000000000006000000002050880402000029
:10538000000001029090909090000000000000004A
:105390000002048850200002010000001804C42408
:1053A0001800000002000000F804E494F800010274
:1053B0000202020000E09CF08000020300000302F1
:1053C00004FC2424D800020302020100F8040404AF
:1053D0000C0001020202010004FC0404F8000203B4
:1053E0000202010004FC24740C0002030202030008
:1053F00004FC24740C00020302000000F0080444C2
:10540000CC4000010202010004FC2020FC04020345
:10541000000003020404FC04040002020302020070
:10542000000404FC040406040403000004FC24D06B
:105430000C0402030200030204FC04000000020347
:1054400002020203FC3CC03CFC000300030003001A
:1054500004FC30C4FC04020302000300F80404044A
:10546000F80001020202010004FC242418000203D7
:1054700002000000F8848404F8000102020705001D
:1054800004FC24649800020302000302182424444C
:105490008C000302020201000C04FC040C00000258
:1054A0000302000004FC0000FC04000102020100F1
:1054B000047C80E01C040000030000001CE03CE0D1
:1054C0001C00000300030000049C609C0400020315
:1054D00000030200041CE01C0400000203020000A0
:1054E0000C84641C04000203020203000000FE029C
:1054F0000200000007040400000E30C0000000009D
:1055000000010200000202FE000000040407000087
:105510000004020400000000000000000000000081
:105520000000080808080808000002000000000049
:10553000000000000040A0A0C00000010202030221
:1055400004FC2020C00000030202010000C0202053
:10555000600000010202020000C02024FC000001E3
:105560000202030200C0A0A0C0000001020202006B
:105570000020F82424040002030202000040A0A03E
:10558000602000070A0A0A0404FC2020C00002036D
:10559000020003020020E4000000000203020000F9
:1055A000000020E4000008080807000004FC80E078
:1055B00020200203020003020404FC000000020297
:1055C00003020200E020E020C0000300030003000B
:1055D00020E02020C00002030200030200C02020BF
:1055E000C00000010202010020E02020C000080FDE
:1055F0000A02010000C02020E0000001020A0F089A
:1056000020E0402020000203020000000060A0A073
:1056100020000002020203000020F8200000000029
:105620000102020020E00020E0000001020203026B
:1056300020E0208060200000030100006080E08006
:10564000600000030003000020608060200002036F
:105650000003020020E0208060200808070100000D
:105660000020A0602000000203020200000020DEF3
:105670000200000000070400000000FF000000001E
:10568000000F00000002DE20000000040700000000
:1056900002010204040200000000000000000000FB
:1056A000000000000000000000000000000000F802
:1056B00000000000000000333000000000100C0665
:1056C000100C0600000000000000000040C0784000
:1056D000C0784000043F04043F040400007088FCCC
:1056E00008300000001820FF211E0000F008F00024
:1056F000E018000000211C031E211E0000F0088895
:10570000700000001E2123241927211010160E00FE
:10571000000000000000000000000000000000E0A9
:1057200018040200000000071820400000020418BE
:10573000E00000000040201807000000404080F01A
:10574000804040000202010F01020200000000F050
:10575000000000000101011F010101000000000024
:105760000000000080B07000000000000000000099
:105770000000000000010101010101010000000022
:1057800000000000003030000000000000000000B9
:1057900080601804006018060100000000E0100896
:1057A0000810E000000F102020100F00001010F86B
:1057B000000000000020203F2020000000700808AA
:1057C000088870000030282422213000003008882A
:1057D000884830000018202020110E000000C02052
:1057E00010F8000000070424243F240000F8088873
:1057F000880808000019212020110E0000E0108800
:1058000088180000000F112020110E000038080831
:10581000C83808000000003F000000000070880841
:1058200008887000001C222121221C0000E01008C2
:105830000810E0000000312222110F00000000C01B
:10584000C0000000000000303000000000000080B8
:1058500000000000000080600000000000008040A8
:1058600020100800000102040810200040404040C1
:105870004040400004040404040404000008102014
:105880004080000000201008040201000070480859
:105890000808F0000000003036010000C030C828C1
:1058A000E810E0000718272423140B000000C0387C
:1058B000E0000000203C23020227382008F88888F6
:1058C00088700000203F202020110E00C030080802
:1058D00008083800071820202010080008F80808D9
:1058E0000810E000203F202020100F0008F88888D2
:1058F000E8081000203F20202320180008F888889E
:10590000E8081000203F200003000000C030080815
:105910000838000007182020221E020008F808009E
:105920000008F808203F210101213F20000808F865
:10593000080800000020203F202000000000080888
:10594000F8080800C08080807F00000008F888C048
:1059500028180800203F20012638200008F80800F9
:1059600000000000203F20202020300008F8F80030
:10597000F8F80800203F003F003F200008F830C042
:105980000008F808203F200007183F00E010080832
:105990000810E0000F10202020100F0008F8080861
:1059A0000808F000203F210101010000E010080874
:1059B0000810E0000F18242438504F0008F8888899
:1059C00088887000203F2000030C30200070880879
:1059D000080838000038202121221C00180808F887
:1059E000080818000000203F2000000008F8080008
:1059F0000008F808001F202020201F0008788800D9
:105A000000C83808000007380E010000F80800F848
:105A10000008F800033C0700073C030008186880F2
:105A20008068180820302C03032C30200838C80068
:105A3000C83808000000203F2000000010080808B7
:105A4000C83808002038262120201800000000FE59
:105A5000020202000000007F40404000000C30C005
:105A600000000000000000010638C0000002020231
:105A7000FE000000004040407F00000000000402E3
:105A8000020204000000000000000000000000000E
:105A900000000000808080808080808000020204FE
:105AA00000000000000000000000000000008080F6
:105AB000808000000019242222223F2008F8008064
:105AC00080000000003F112020110E000000008027
:105AD00080800000000E11202020110000000080B6
